:020000040800F2
:10000000881500209901000897390008952B0008F1
:10001000953900088D0900087941000800000000AA
:1000200000000000000000000000000001010008C6
:100030008F0900080000000045010008713E00081B
:10004000B3010008B3010008B3010008DD3A00085D
:10005000B3010008B3010008B3010008B3010008B0
:10006000B3010008B3010008B3010008B3010008A0
:10007000B3010008B3010008B3010008B301000890
:10008000B3010008B3010008B3010008B301000880
:10009000B3010008B3010008B3010008B301000870
:1000A000B3010008B3010008B3010008B301000860
:1000B000213F0008B3010008B3010008992B000894
:1000C000B3010008B3010008B3010008B301000840
:1000D000B30100086D410008B3010008B301000836
:1000E000B3010008B3010008B3010008DFF80CD029
:1000F00000F03AFC00480047C9530008881500206A
:10010000224B19680868B0E8F00F80F30988BFF344
:100110006F8F4FF0000080F311884EF00D0E704786
:100120000000000006480068006880F3088862B696
:1001300061B6BFF34F8FBFF36F8F00DF00BF00BF0B
:1001400008ED00E0EFF30980BFF36F8F0F4B1A68E3
:1001500020E9F00F106008B54FF0500080F31188CF
:10016000BFF34F8FBFF36F8F06F062FC4FF00000BC
:1001700080F31188BDE8084019680868B0E8F00FFE
:1001800080F30988BFF36F8F704700BF58000020CD
:10019000EFF3058070470000064880470648004797
:1001A000FEE7FEE7FEE7FEE7FEE7FEE7FEE7FEE727
:1001B000FEE7FEE71D3F0008ED0000082DE9F041D5
:1001C0000024061B254671F1000605DA01240027EC
:1001D000D0EB070067EB0101161E73F1000605DA8C
:1001E0000027D2EB0702012567EB030300F037FA83
:1001F00086460E4617469C46AC4204D00025D0EBFE
:10020000050E65EB010624B10020D2EB000760EB80
:10021000030C704631463A466346BDE8F081202A19
:1002200004DB203A21FA02F00021704721FA02F3A0
:10023000D040C2F12002914008431946704740EA7D
:1002400001039B0703D009E008C9121F08C0042A54
:10025000FAD203E011F8013B00F8013B521EF9D23B
:100260007047D2B201E000F8012B491EFBD2704763
:100270000022F6E710B513460A4604461946FFF772
:10028000F0FF204610BD421C10F8011B0029FBD1D5
:10029000801A704780EA010210B502F00043400066
:1002A00022D04A001FD0010E01EB1261C0F35600AC
:1002B000C2F3560240F4000042F40002A0FB022008
:1002C00000047F39140400D0401C50EA124001D4CD
:1002D0004000491EC2B20C0604EBD010401C40087E
:1002E000802A02D003E0002010BD20F00100002988
:1002F00000DA0020184310BD30B480EA010202F099
:10030000004530F0004221F0004013D090B1C30D01
:10031000D40DC2F31601C0F31600E41A41F4000133
:1003200040F400027D34914201D3641C00E0490096
:10033000002C02DA30BC002070474FF4000000238C
:10034000914201D3891A034340084FEA4101F7D192
:1003500051B1914202D14FF0004105E002D24FF07D
:10036000010101E06FF0010103EBC450284430BCEF
:1003700000F0C7B9420005D0C0F3C75252429142C3
:1003800001DC0020704700EBC15070472DE9FE4FA3
:10039000804681EA0300C00F0C46009021F0004126
:1003A00023F00045B8EB0200A94105D240462146A2
:1003B00090461C460B46024623F00040104347D0AF
:1003C000270DC7F30A00C3F30A510290401A0190A7
:1003D00040286BDAC3F3130040F4801B0098924668
:1003E00020B10023D2EB030A63EB0B0B01985946B3
:1003F000C0F14002504600F063F906460D465046F3
:100400005946019A00F06BF910EB08006141002495
:1004100087EA115284EAE7731A4340D0009A62B324
:10042000019A012A4FEA075215DC001B61EB020119
:100430004FF0004202EA0752CDE90042001C41F5AC
:10044000801132462B4600F0A2F903B0BDE8F08FD0
:1004500040462146F9E7001B61EB0201001C41F513
:10046000801300185B412018A2F5001747EB030129
:1004700040EAD570B6196D4111E06D084FEA3606B5
:1004800045EAC0754FEA0752001B61EB0201001CF0
:1004900041F5801149084FEA3000001951413246B8
:1004A0002B4603B0BDE8F04F00F062B9009801227E
:1004B00040000023D0EB020263EBE073009821467A
:1004C0004FEAE074B8EB000061EB0401E9E783F068
:1004D00000435BE781F0004158E72DE9FE4F81EAD8
:1004E000030404F0004421F0004100944FF0000B9D
:1004F00023F0004350EA01045ED052EA03045BD0CB
:10050000C3F30A54C1F30A552C44A4F2F334019402
:10051000A0FB0254C1F3130141F48011C3F3130390
:1005200043F4801301FB024400FB034E840A970A44
:1005300044EA815447EA8357A4FB076802958D0A71
:1005400005FB07854FEA932C04FB0C542705029DFD
:100550004FEA065847EA1637B5EB08056EEB070C6D
:10056000870E920E47EA811742EA8312A7FB020127
:10057000B6EB0B0164EB00042B0D43EA0C335E1861
:1005800044EB1C50DA465146E7FB0201C5F3130465
:100590004FEA0B3343EA14534FEA0432019C43EA17
:1005A0000603A4F10C040294009CCDE900B400F011
:1005B000EEF803B0BDE8F08F00200146F9E7C10F67
:1005C00080EAE0700844CA079623002100F0A2B830
:1005D00096230022114600F09DB800F0004220F062
:1005E0000040C10DC0F3160040F400007F2901DA7D
:1005F00000207047962903DCC1F19601C84001E054
:1006000096398840002AF4D04042704700F00042FA
:1006100030F000400AD0C10D01F56071C0F3160042
:1006200042EA0151C20840071143704700200146C9
:10063000704730B50B46014600202022012409E016
:1006400021FA02F59D4205D303FA02F5491B04FA8B
:1006500002F52844151EA2F10102F1DC30BD2DE99E
:10066000F05F0546002092469B4688460646814636
:1006700040241BE02846414647462246FFF7CFFD6F
:1006800053465A46C01A914110D311461846224685
:1006900000F016F82D1A67EB01084F46224601209C
:1006A000002100F00DF817EB00094E41201EA4F1C7
:1006B0000104DFDC484631462A464346BDE8F09F48
:1006C000202A04DB203A00FA02F100207047914012
:1006D000C2F1200320FA03F3194390407047202A07
:1006E00006DBCB17203A41FA02F043EAE07306E05A
:1006F00041FA02F3D040C2F120029140084319466A
:1007000070470029A8BF7047401C490008BF20F06F
:100710000100704710B4B0FA80FC00FA0CF050EA07
:10072000010404BF10BC704749B1CCF1200421FA88
:1007300004F411FA0CF118BF012121430843A3EB83
:100740000C01CB1D4FEA00614FEA102042BF002090
:1007500010BC704700EBC35010440029A4BF10BC6C
:100760007047401C490008BF20F0010010BC7047D2
:1007700010B5141E73F1000408DA401C41F10001A9
:1007800092185B411A4301D120F0010010BD2DE900
:10079000F04D92469B4611B1B1FA81F202E0B0FAF7
:1007A00080F220329046FFF78BFF04460F4640EA66
:1007B0000A0041EA0B0153465A46084313D011463A
:1007C00053EA010019D0C8F140025046FFF727FD57
:1007D00005460E46504659464246FFF771FF08430C
:1007E00005D0012004E020463946BDE8F08D002008
:1007F000054346EAE0762C4337430A986305E40A4A
:10080000A0EB08000022FD0A44EA47540A3002D552
:1008100000200146E9E7010510196941DDE90845B5
:1008200000196941BDE8F04DA2E72DE9F04D81EADC
:10083000030404F0004B21F0004514464FF0000A79
:1008400023F0004150EA050220D054EA01021DD0F5
:10085000C5F30A570246C5F31303C1F31300C1F3EE
:100860000A5640F4801543F48013A7EB0608101BCA
:10087000D64608F2FD3873EB050002D308F10108F3
:1008800001E092185B41B8F1000F03DA0020014645
:10089000BDE8F08D00204FF48011064684460EE03E
:1008A000171B73EB050705D3121B63EB0503064308
:1008B0004CEA010C49084FEA300092185B4150EABB
:1008C0000107EDD152EA030012D082EA040083EA64
:1008D0000501084305D0101BAB4106D201220023BD
:1008E00006E000224FF0004302E06FF001025310D7
:1008F0001AEB06004CEB085110EB0A0041EB0B0120
:10090000BDE8F04DFFF734BFC1F30A52C1F3130144
:1009100040F2FF3341F480119A4202DA002001468E
:10092000704740F233439A42A2F2334202DC524211
:10093000FFF775BCFFF7C4BE30B5041E71F10004AB
:1009400004DB4FF00044404264EB0101141E73F1DC
:10095000000405DB1C464FF00043524263EB0403E6
:10096000994208BF904230BD064C074D06E0E06852
:1009700040F0010394E8070098471034AC42F6D3E6
:10098000FFF7B8FB306F0008506F0008FEE77047B4
:1009900010B590F821100024022903D004218163AE
:1009A00001243DE001680A6822F00E020A60016835
:1009B0000A6822F001020A601A4A0168914201D1D4
:1009C000012121E0174A1432914201D110211BE08C
:1009D000144A2832914201D1891515E0114A3C325E
:1009E000914201D189140FE00E4A5032914202D156
:1009F0004FF4803108E00B4A6432914202D14FF447
:100A0000801101E04FF08071064A083A51600121DF
:100A100080F82110002180F82010416B01B1884737
:100A2000204610BD0800024090F8210070470000E9
:100A300070B5044600F004F90546601C02D0044875
:100A40000078044400F0FCF8401BA042FAD370BDCB
:100A5000480000202DE9F84FDFF8B891002409F193
:100A6000040A0AF1040B23460F270BF1040EC9E018
:100A70000125A5402A40AA427DD1674ED1F804C085
:100A8000ACEB0608B44532D014DCBCF1030F3AD00D
:100A900009DCBCF1000F2AD0BCF1010F1CD0BCF165
:100AA000020F31D11DE0BCF1110F17D0BCF1120FB4
:100AB0002AD119E0B8F5881F19D006DCB8F5803FB7
:100AC00015D0B8F5801F1FD111E0B8F5001F0ED06A
:100AD000B8F5041F18D10AE0CB6815E0CB681B1DE0
:100AE00012E0CB6808330FE0CB680C330CE08B6866
:100AF0002BB1012B4FF0080303D0456104E0042320
:100B000002E0056100E00023FF2A01D8064601E06B
:100B100000F104064FEA840501D9A5F12005D6F8B5
:100B2000008007FA05FC28EA0C0803FA05F548EAF4
:100B30000508C6F800804D68ED0062D5374DAE69F6
:100B400046F00106AE61AD6924F0030605F001052B
:100B50000095334D06EB050CDCF80850A607360F60
:100B600007FA06F825EA0805DFF8B880404503D102
:100B70004FF0000817E044E0DFF8AC80404502D1B8
:100B80004FF001080FE0DFF8A480404502D14FF09C
:100B9000020808E0DFF89880404502D14FF00308D2
:100BA00001E04FF0040808FA06F848EA0508CCF816
:100BB00008804D68D9F80060ED034D4601D5164315
:100BC00000E096432E604D68DAF80060AD035546AC
:100BD00001D5164300E096432E604D68DBF80060B7
:100BE000ED025D4601D5164300E096432E604D6848
:100BF000DEF80060AD02754601D5164300E096436D
:100C00002E60641C0D682A46E5407FF431AFBDE8D4
:100C1000F88F000000040140000011100010024095
:100C20000000014000080140000C0140001001409C
:100C3000001401400AB1016170470904FBE700009C
:100C400001488068704700004800002070477047E6
:100C50002DE9F041026800245168C76A90F83E50BF
:100C600090F83D60102D1CD0402D1AD0036C002B45
:100C70007ED053694FF02805DB439F0779D4CF43DB
:100C8000BF0576D4016C01B1946990F83D30002124
:100C90009D430B466ED0C91E516180F83C30BDE8C3
:100CA000F081946953694FF42A0CDB435FEAC37EF9
:100CB0004FF02A4604D06745F1D0B742EFD010E09C
:100CC000CF43BF050DD4C16A614501D1012103E0C5
:100CD000C16AB14201D10821C162BDE8F04102F010
:100CE000A1BA1E0716D4CE43B60513D4416CC9B2BF
:100CF0001161416B11B9826B002AD0D0896A19B990
:100D0000816B896A0029CAD00068416841F400619A
:100D10004160C4E79E0706D4CE43B60503D4BDE8C0
:100D2000F04102F0D3B9E443526864074FEA02523B
:100D30001BD4002AB3DB1A0608D4CA43520505D4D3
:100D40005A0705D5BDE8F04102F064B95A07A6D4A8
:100D5000C9438905A3D4102D03D0BDE8F04102F0AA
:100D6000A7BABDE8F04102F01BB9002A97DB02E008
:100D700015E029E015E05A0608D4CA43520505D407
:100D80005A0705D5BDE8F04102F096B85A0786D457
:100D9000C943890583D4BDE8F04102F024B89469C1
:100DA00067E7556825F480655560E243540700D530
:100DB0000121120601D5828900E0028B80F83C30C7
:100DC00092B2FFF744FF6AE7DC0606D4CC43A405E1
:100DD00003D4BDE8F04102F08DBB212E27D0292E8F
:100DE00025D05C0655D4CC43640552D45B0752D55C
:100DF00090F83D10438D002B8BD01269436A1A7016
:100E0000426A521C4262428D521E4285428D002A25
:100E1000D9D12A29D7D101684A6822F480624A6070
:100E20002221016380F83D5000F006FB37E71C06E5
:100E300023D4CC43640520D45B0720D590F83D1023
:100E4000438D002BBFD0436A1B781361426A521C4A
:100E50004262428D521E4285428D002AB3D1292919
:100E6000B1D101684A6822F480624A60212101639D
:100E700080F83D5000F0E1FA11E75B07A3D4C943C5
:100E80008905A0D4418D00299DD0416A097811615E
:100E90000AE05B0797D4C943890594D4418D0029A2
:100EA00091D01169426A1170416A491C4162418DB9
:100EB000491E4185F3E6704770B5040025D094F8CB
:100EC0003D00002520B984F83C50204600F07EFA11
:100ED000242084F83D002068016821F001010160B0
:100EE0002068016841F4004101602068016821F434
:100EF0000041016000F0F0FC4D4A6168914201D868
:100F00004C4900E04C49884201D2012070BD4B4958
:100F10002368B0FBF1F15E6826F03F060E435E6089
:100F20006368934206D94FF4967359434FF47A732A
:100F3000B1FBF3F12368491C1E6A26F03F063143DA
:100F400019626168914210D84900401EB0FBF1F26D
:100F5000521CC2F30B02042A01D2042022E0B0FB8F
:100F6000F1F0401CC0F30B001CE0A268F2B301EBEF
:100F7000C10303EB0116431EB3FBF6F35B1C43F402
:100F800080431B0549D092B301EBC10202EB011172
:100F9000401EB0FBF1F0401CC0F30B0040F4804059
:100FA00040F400402168CA694CF6FF739A4310432D
:100FB000C861D4E9071001432068026822F0C0022A
:100FC00011430160D4E9030101432068826848F2BB
:100FD000FF339A4311438160D4E905010843216836
:100FE000CA6822F0FF021043C86001E00EE016E07C
:100FF0002068016841F0010101602564202084F827
:101000003D00256384F83E50002070BD01EB410691
:10101000431EB3FBF6F35B1CB3E70120C2E701EB11
:101020004101401EB0FBF1F0401CC0F30B00B7E7DC
:10103000A086010080841E0000093D0040420F0090
:101040007047704770477047704700002DE9FF4FA9
:1010500083B00025DDE910799A4693460446DDF811
:1010600048800095FFF7ECFD064694F83D002028E7
:101070007CD11923012285492046009602F00EFBFF
:101080000028F5D194F83C0001286FD0012084F8A5
:101090003C0020680168C90703D1016841F00101E3
:1010A00001602068016821F400610160222084F859
:1010B0003D00402084F83E0025646762A4F82A9031
:1010C000608D20857248E062CDE9008653465A461D
:1010D0002046049902F03CF900287DD1208DDFF8EC
:1010E000B491202768B1012814D002282068016833
:1010F0001ED041F4806101602068416980690090E0
:10110000B6E02068416981690091016841F400718D
:101110000160ADE02068016821F48061016072B671
:101120002068416981690091016841F400710AE019
:1011300041F40061016072B62068416981690091E3
:10114000016821F48061016062B691E0032868D8EB
:1011500001280CD0022843464FF0000249462046A1
:1011600000960FD002F09AFAB0BB10E08BE0324646
:101170004146204602F011FB70BB20680069616A9D
:1011800008706CE002F08AFA30BB72B634E0206876
:10119000016821F48061016072B620680069616AAB
:1011A0000870606A401C6062208D401E2085608D42
:1011B000401E6085384846F2A8110068B0FBF1F087
:1011C000C0EBC00000EB80000090401E009008D0F3
:1011D00020684069C04300E029E040070CD5009832
:1011E000F3E744F8305F6773A573206940F020008F
:1011F000206162B625731AE02068016841F400712D
:10120000016020680069616A0870606A401C606261
:10121000218D491E2185618D491E618562B6216837
:101220001BE032464146204602F0B7FA18B10120D1
:1012300007B0BDE8F08F20680069616A0870606AD5
:10124000401C6062218D491E2185618D491E61858A
:1012500021684A69D24352070AD409690170606A59
:10126000401C6062208D401E2085608D401E608580
:10127000208D00287FF46AAF84F83D7084F83E50DA
:1012800084F83C50D4E70220D2E7000002001000AE
:101290000000FFFF04000100540000202DE9FF4F73
:1012A00083B09A46DDE9119793460446DDF8408005
:1012B000FFF7C6FC054694F83D0020287FD119238E
:1012C000012240492046009502F0E8F9002876D135
:1012D00094F83C00012872D0012084F83C0020687A
:1012E0000168C90703D1016841F00101016020686C
:1012F000016821F400610160212084F83D00402054
:1013000084F83E0000262664C4F82480A4F82A90BD
:10131000608D20852C48E062CDE9007553465A4621
:101320002046049902F092F870B930E02A46394616
:10133000204602F065FA58B1206C042804D12068D8
:10134000016841F400710160012007B0BDE8F08F31
:10135000606A216800780861606A401C6062218DC3
:10136000491E89B22185628D521E628522685369A9
:10137000DB435B070BD469B100781061606A401CE5
:101380006062208D401E2085608D401E6085208D0E
:101390000028CBD12A463946204602F059F90028C8
:1013A000CAD154F83D0B016841F40071016020205E
:1013B00004F81E09E67766770020C6E7FFE70220FB
:1013C000C3E70000020010000000FFFF10B586B068
:1013D0000021009101910291039100681349884214
:1013E00022D1134CA06940F00800A061A0696946B1
:1013F00000F008000490C02000901220019003200B
:1014000003900C48FFF726FBE06940F40010E06110
:10141000E069002200F40010049005211F2000F074
:1014200093F81F2000F082F806B010BD0054004071
:1014300000100240000C014070477047024881686C
:10144000027811448160704748000020074810B5B9
:10145000016841F010010160032000F095F80020C0
:1014600000F006F800F03EF8002010BD0020024019
:1014700000B5014687B000221C2000F065F81C2052
:1014800000F054F81448C16941F00101C161C0691C
:1014900005A900F001000690684600F0FDF900F093
:1014A0001BFA0E494000B0FBF1F10D484FF08042AD
:1014B000491E0260416040F2E7320021C0E9032189
:1014C000816001F0D0F810B1012007B000BD0448E0
:1014D00001F0F8F8F9E700000010024040420F0068
:1014E0008C0400200F4808B5816941F00101816139
:1014F000816901F001010091C16941F08051C16130
:10150000C069002200F0805000900F21901E00F072
:101510001BF80548416821F0E06141F0007141602D
:1015200008BD00000010024000000140002809DB57
:1015300000F01F02012191404009800000F1E020ED
:10154000C0F8001170470000F0B40E4B1B680C4649
:10155000C3F30223C3F10705042D00D90425191D87
:10156000072901D2002300E0DB1E012606FA05F15F
:10157000491E214099409E40761E16403143F0BCE2
:1015800002F010BE0CED00E0064900F0070208680A
:101590004FF6FF03184040EA0220034A1043086058
:1015A000704700000CED00E00000FA050149012041
:1015B0000862704700000E4210B529A401461DCCF8
:1015C00086B08DE81D002AA02A4C006804900020F7
:1015D000012923D002293AD010291DD1616822683F
:1015E000D20119D5C1F38342C9031DF8020009D500
:1015F000616804AAC1F34041515C1F4AB2FBF1F19A
:10160000484301E01D4948436168490204D4400051
:101610005FF00301B0FBF1F006B010BD226AC2F327
:101620000121012903D1920701D5C803F4E702295A
:1016300005D1626A920702D549F64040ECE70329DA
:10164000EAD121688903E7D54FF22440E4E700F0AE
:1016500053F96168C1F38131491C4900DAE70000A0
:1016600002030405060708090A0B0C0D0E0F1010E3
:10167000010200000010024000127A0000093D0043
:101680002DE9F84305460078354CC00754D0E06991
:101690000026C00008D4E06940F08050E061E069B5
:1016A000012600F0805000902E480168C90512D430
:1016B0000168804641F480710160FFF7C1FA074676
:1016C00005E000BFFFF7BCFAC01B642823D8D8F898
:1016D0000000C005F6D5206A10F4407021D0A9881A
:1016E00001F4407181421CD0206A1F49012220F47C
:1016F00040700A6000220A602062C00711D0FFF724
:101700009FFA074641F2883808E000BFFFF798FAD1
:10171000C11B414502D90320BDE8F883206A800738
:10172000F4D5206A696820F44070084320621EB135
:10173000E06920F08050E0612878800705D5606876
:10174000A96820F44040084360602878C00605D5A9
:101750006068E96820F48000084360600020DBE7EF
:101760000010024000700040400442422DE9F04762
:101770000F46050061D0434E306800F00700B842C4
:1017800009D2306820F0070038433060306800F03C
:101790000700B84251D128683B4C810712D5400759
:1017A00003D5606840F4E06060602878000703D5E6
:1017B000606840F4605060606068A96820F0F000E4
:1017C000084360602878C00728D06868012810D0D6
:1017D0002168022810D0890700292EDA616821F0DB
:1017E000030101436160FFF72BFA804641F288391B
:1017F0000DE021688903EFE78901EDE7FFF720FAA3
:10180000A0EB0801494502D90320BDE8F0876068D4
:10181000696800F00C00B0EB810FEFD1306800F088
:101820000700B8420BD9306820F007003843306019
:10183000306800F00700B84201D00120E5E72878C1
:10184000400705D56068E96820F4E06008436060FF
:101850002878000706D56068296920F4605040EABE
:10186000C100606000F058F86168084AC1F30311D4
:10187000515CC8400649086006480068FFF7F8FD5B
:101880000020C2E70020024000100240086E00085D
:10189000540000204C0000200F2202600C4A5368C4
:1018A00003F003034360536803F0F003836053685D
:1018B00003F4E063C36052684FF4E06303EAD202CA
:1018C00002610448006800F00700086070470000EB
:1018D00000100240002002400448054900684968A1
:1018E000044AC1F30221515CC840704754000020F3
:1018F00000100240186E0008044805490068496855
:10190000044AC1F3C221515CC84070475400002012
:1019100000100240186E000812A185B00FC98DE8B2
:101920000F0014A0144A006804905168134801F095
:101930000C03042B10D0082B0ED1C1F38343C90331
:101940001DF803000AD5516804AAC1F34041515C57
:101950000A4A5043B0FBF1F005B0704708494843CC
:10196000FAE7000002030405060708090A0B0C0D3C
:101970000E0F1010010200000010024000127A0049
:1019800000093D002DE9F84F040070D02078C04DCB
:10199000C00749D06868C0F38100012807D0686893
:1019A000C0F38100022809D16868C00306D5286801
:1019B000800339D560680028E7D035E06068B0F56D
:1019C000803F0BD010B1B0F5A02F11D0286820F4C3
:1019D00080302860286820F4802002E0286840F4E5
:1019E00080302860606890B1FFF72AF906460AE067
:1019F000286840F480202860F0E700BFFFF720F956
:101A0000801B642873D828688003F7D50CE0FFF7A3
:101A100017F9064605E000BFFFF712F9801B64289E
:101A2000F0D828688003F7D420789A4E80074FF0CA
:101A300001094FF0000839D5686810F00C0F07D085
:101A40006868C0F38100022809D16868C00306D421
:101A50002868800714D52069012808D110E0206982
:101A6000B0B1C6F80090FFF7EBF8074605E00AE1D1
:101A7000FFF7E6F8C01B0228C4D828688007F7D50E
:101A80002868616920F0F80040EAC10028600DE094
:101A9000C6F80080FFF7D4F8074604E0FFF7D0F857
:101AA000C01B022823D828688007F7D420780007B5
:101AB0002CD57948A169D9B1C0F80090FFF7C0F8DA
:101AC000074604E0FFF7BCF8C01B02280FD8686A7D
:101AD0008007F7D571484FF4FA510068B0FBF1F078
:101AE000009000BF0098411E0091FAD20EE080E005
:101AF000C0F80080FFF7A4F8074604E0FFF7A0F85D
:101B0000C01B022875D8686A8007F7D42078400780
:101B100060D5E8690027C00008D4E86940F080502B
:101B2000E861E869012700F0805000905C48016896
:101B3000C90513D40168834641F480710160FFF741
:101B40007FF8824606E000BFFFF77AF8A0EB0A00B4
:101B500064284ED8DBF80000C005F5D5E068012800
:101B60000AD008B1052813D0286A20F001002862A5
:101B7000286A20F0040002E0286A40F00100286290
:101B8000E06841F2883B98B1FFF75AF882460BE0D3
:101B9000286A40F004002862EEE700BFFFF750F823
:101BA000A0EB0A0159455AD8286A8007F6D50CE0FF
:101BB000FFF746F8824605E0FFF742F8A0EB0A017E
:101BC00059454CD8286A8007F6D41FB1E86920F03F
:101BD0008050E861E06988B36968C1F38101022936
:101BE00044D00228C6F8608004D0FFF729F80446E4
:101BF00038E034E0FFF724F8074604E0FFF720F868
:101C0000C01B02282BD828688001F7D4206AB0F5C1
:101C1000803F05D16868A16820F4003008436860FF
:101C2000D4E908010843696821F474110843686025
:101C3000C6F86090FFF704F8044606E025E000BF10
:101C4000FEF7FEFF001B022809D828688001F7D59F
:101C50001BE000BFFEF7F4FF001B022802D903209F
:101C6000BDE8F88F28688001F4D40EE00128F7D091
:101C70006868226A00F48031914204D1616A00F4FC
:101C80007010884201D00120EAE70020E8E7000058
:101C900000100240000042428004424254000020F2
:101CA000007000407047704710B504460068016836
:101CB000C90716D04168C90713D0406840072046BD
:101CC00007D5FFF7F0FF21686FF00400486004209B
:101CD00002E0FFF7E7FF0120607421686FF0010068
:101CE000486010BDF8B505004FF0000016460C46E0
:101CF000009006D02CB100226946284600F019F861
:101D000008B10120F8BD287B2070E87BE070697B7A
:101D10006170A97BA17056B101F047FEE070607858
:101D200001F043FE6070A07801F03FFEA07000203B
:101D3000F8BD2DE9F04791460C465FEA00084AD00D
:101D400084B3D8F800004068400744D4404601F00E
:101D5000D2FE4FF461620546B0FBF2F1B0FBF2F344
:101D600002FB13503C23B0FBF3F0B5FBF2F66070BE
:101D700002FB1650B0FBF3F203FB1200A07018290F
:101D800031D31820B1FBF0F7B1FBF0F200FB1210D9
:101D90002070404601F0A8FE411C04D0A84202D9A0
:101DA000461B02E017E04FF0FF36A7EB071000EBF1
:101DB0004000C0EB001005EBC0152946404601F07D
:101DC000E9FE40B9701C01D0711900E0314640466F
:101DD00001F0CCFE10B10120BDE8F0873946404645
:101DE00001F0EEFD00E02170B9F1000F0BD020787A
:101DF00001F0DBFD2070607801F0D7FD6070A07805
:101E000001F0D3FDA0700020E6E7000070B50400EB
:101E100003D0607C002610B105E0012070BD26745F
:101E2000204600F043F802206074204600F01AF9C2
:101E3000042578BB204601F01AFE58BB2068416893
:101E400021F007014160A06820B11748016821F026
:101E5000010101601448001F0168A26821F460714B
:101E6000114301606068411C04D10120FFF7A4FB0D
:101E700080B1401E21688A6822F00F0242EA1042B7
:101E80008A602168CA6860F30F02CA60204601F0C8
:101E900009FE08B16574C0E7E67301206073A073A2
:101EA0006074002070BD0000306C004008B5006810
:101EB0000D49884217D1FFF779FB0C48C16941F001
:101EC0000061C161C0690A4900F000600090012012
:101ED0000860002205210320FFF736FBBDE808401B
:101EE0000320FFF723BB08BD00280040001002407C
:101EF0003C0442422DE9F0410D4604003BD0C5B3FD
:101F0000207C01283AD04FF0010884F8108002208C
:101F10006074E87872B301F03FFDE073687801F017
:101F20003BFD6073A87801F037FDA073C2B2617BFE
:101F3000E07B01F0F0FD20732870204601F0DBFD0E
:101F40004FF46161B0FBF1F1002518292DD9182259
:101F5000B1FBF2F1A1EB011101EB4101C1EB011168
:101F600000EBC1163146204601F014FE0427C8B923
:101F70000BE000E004E00120BDE8F0810220FBE777
:101F8000E07368786073A878CFE7204601F0ACFD75
:101F9000411C0AD0B04208D206490144204601F053
:101FA000E5FD10B167742574E5E784F811802574A8
:101FB0000020E1E7805101002DE9F0410D460400C9
:101FC00024D01DB3207C012823D04FF0010884F8D1
:101FD0001080022060742878EAB101F0DDFC4FF433
:101FE000616100FB01F6687801F0D6FCC0EB0010DF
:101FF00006EB8006A87801F0CFFC3518294620466C
:1020000001F0C8FD0026042710BB0FE00120BDE849
:10201000F0810220FBE74FF4616148436978C1EB2E
:10202000011100EB8100A9784518E7E720684168B5
:1020300021F005014160204601F056FD411C0AD007
:10204000A84208D206490144204601F08FFD10B194
:1020500067742674DAE784F8118026740020D6E7C6
:102060008051010070B504000AD02068416821F059
:1020700008014160FEF7E4FD05464FF47A7608E07A
:10208000012070BDFEF7DCFD401BB04201D90320EA
:1020900070BD206840680007F4D5002070BD70B5A1
:1020A000040009D0606A002540B125616561A56220
:1020B00094F8510040B10CE0012070BD6068B0F5AB
:1020C000827FF4D0E561F2E784F85050204600F0BA
:1020D0003FF8022084F851002068016821F0400197
:1020E0000160A088218900F4827001F40441084352
:1020F000A18901F400610843217C01F00201084339
:10210000217D01F001010843218B01F40071084396
:10211000217F01F03801084394F8201001F080017C
:102120000843218D01F40051084321680860A0692B
:10213000042101EA1040216848602068C16921F447
:102140000061C1616565012084F85100002070BD07
:1021500030B585B000240094019402940394006883
:102160001449884223D11448816941F48051816126
:10217000816901F480510491816941F00401816118
:1021800080690E4D00F004000490A0200090022011
:1021900001900320039069462846FEF75BFC40202F
:1021A000CDE90004694628460294FEF753FC05B0C9
:1021B00030BD000000300140001002400008014026
:1021C0002DE9F84F044640680025984616460F460C
:1021D0004FF0040BB0F5827F01D1A06888B194F86C
:1021E0005000012818D0012084F85000FEF728FD87
:1021F000814694F851004FF0000A01280ED00225C4
:1022000082E084F851B013460A462046CDF800809B
:1022100000F036F9BDE8F88F0220FBE7002F72D0FE
:10222000002E70D084F851B0C4F854A0A763A687DC
:10223000E687C4F830A0A4F834A0A4F836A0C4F807
:1022400040A0C4F844A0A068B0F5004F09D12068B0
:10225000016821F0400101602068016821F480419B
:10226000016020680168490603D4016841F040011B
:102270000160E068D8B139E020688168C90709D0F9
:10228000007BA16B0870A06B401CA063E08F401E18
:10229000E0870CE0FEF7D4FCA0EB0901414503D335
:1022A000B8F1FF3F03D036E0B8F1000F33D0E08F34
:1022B0000028E1D11DE020688168C90709D0C06805
:1022C000A16B0880A06B801CA063E08F401EE0879C
:1022D0000CE0FEF7B5FCA0EB0901414503D3B8F1D2
:1022E000FF3F03D017E0B8F1000F14D0E08F0028B3
:1022F000E1D14A464146204601F060FC08B1202069
:102300006065606D00B10125012084F8510084F8FA
:1023100050A028467EE70325F6E72DE9F84F04464E
:1023200090F8500000271D461646894601280DD01A
:102330004FF0010B84F850B0FEF782FC804694F811
:102340005100BA46012804D0022793E00220BDE8DC
:10235000F88FB9F1000F73D0002E71D0032084F8EC
:102360005100C4F854A0C4F83090A686E686C4F89C
:1023700038A0A4F83CA0A4F83EA0C4F844A0C4F837
:1023800040A0A068B0F5004F09D12068016821F095
:10239000400101602068016841F4804101602068CB
:1023A0000168490603D4016841F040010160E0681A
:1023B000B0F5006F606803D030B3012E24D041E047
:1023C00008B1012E1CD1206B21680088C86006E08E
:1023D00020688168890709D5216B0988C160206B55
:1023E000801C2063E08E401EE08609E0FEF728FC9A
:1023F000A0EB0800A84202D3681C01D031E07DB3F5
:10240000E08E0028E4D120E0206B2168007808737A
:1024100006E020688168890709D5216B0978017376
:10242000206B401C2063E08E401EE0860AE0FEF731
:1024300007FCA0EB0800A84203D3681C02D010E000
:1024400017E06DB1E08E0028E3D1424629462046D0
:1024500001F0E2FB08B120206065A06818B106E039
:10246000FFE7032706E02068C16880680090606D80
:1024700000B1012784F851B084F850A0384666E7CF
:102480002DE9F84F044690F8500000270A9E1D469B
:1024900092468B464FF0010901280ED0012084F8A6
:1024A0005000FEF7CDFB804694F85100616801288A
:1024B0000CD0B1F5827F07D102E00220BDE8F88F91
:1024C000A16809B9042801D00227C2E0BBF1000FBE
:1024D00027D0BAF1000F24D01DB394F8510004287E
:1024E00002D0052084F8510000206065C4F838A0AF
:1024F000E587A587C4F830B0E586A58620646064CA
:1025000020680168490603D4016841F04001016078
:10251000E068B0F5006F606805D0E8B3012D46D0E3
:102520007FE0012795E008B1012D39D1206B2168AA
:102530000088C860206B801C2063E08E401EE0860F
:102540002EE02068816889070FD5E18E69B1B9F165
:10255000010F0AD1216B0988C160206B801C2063A8
:10256000E08E401EE0864FF0000920688168C907B0
:102570000CD0E18F51B1C068A16B0880A06B801CAA
:10258000A063E08F401EE0874FF00109FEF758FB83
:10259000A0EB0800B04200E009E001D3701C50D16C
:1025A000E08E0028CDD1E08F0028CAD13FE0206B1B
:1025B000216800780873206B401C2063E08E401E69
:1025C000E0862EE02068816889070FD5E18E69B129
:1025D000B9F1010F0AD1216B09780173206B401CFE
:1025E0002063E08E401EE0864FF00009206881687D
:1025F000C9070CD0E18F51B1C068A16B0870A06B06
:10260000401CA063E08F401EE0874FF00109FEF7F9
:1026100017FBA0EB0800B04202D3701C01D010E001
:102620007EB1E08E0028CDD1E08F0028CAD142468D
:102630003146204601F0F0FA28B1012720206065DC
:1026400007E0032705E0A06818B92068C168806822
:102650000090012084F85100002084F85000384692
:102660002CE77047704710B5040003D094F83D0084
:1026700010B107E0012010BD002084F83C00204686
:1026800000F01EF8022084F83D00211D206801F0B2
:102690004DFC012084F8460084F83E0084F83F0099
:1026A00084F8400084F8410084F8420084F8430034
:1026B00084F8440084F8450084F83D00002010BDF3
:1026C0007047000090F83D10012901D001207047AB
:1026D000022180F83D100168CA6842F00102CA6018
:1026E00000680B49884208D0B0F1804F05D00949F5
:1026F000884202D00849884204D1816801F007016C
:10270000062903D0016841F00101016000207047F3
:10271000002C01400004004000080040704770B5E4
:102720000446006801694FF00005C943890715D4C4
:10273000C168C943890711D4E91E016101202077CE
:10274000206880698007204602D0FFF7E7FF04E099
:1027500000F098F8204600F096F825772068016987
:10276000C943490717D4C168C943490713D46FF057
:1027700004010161022020772068806910F4407F05
:10278000204602D0FFF7CAFF04E000F07BF82046A5
:1027900000F079F8257720680169C943090716D444
:1027A000C168C943090712D46FF008010161042010
:1027B00020772068C0698007204602D0FFF7AEFF6F
:1027C00004E000F05FF8204600F05DF8257720680F
:1027D0000169C943C90617D4C168C943C90613D4DE
:1027E0006FF010010161082020772068C06910F4A3
:1027F000407F204602D0FFF791FF04E000F042F84E
:10280000204600F040F8257720680169C943C907D0
:1028100008D1C168C943C90704D1891E0161204696
:1028200000F032F820680169C943090609D4C1687B
:10283000C943090605D46FF0800101612046FFF706
:1028400010FF20680169C943490609D4C168C9431A
:10285000490605D46FF040010161204600F01BF8E5
:1028600020680169C94389060BD4C168C943890638
:1028700007D46FF0200101612046BDE87040FFF7EA
:10288000F1BE70BD704770470068B0F1804F01D154
:10289000FEF7D4BD704770477047000070B50268FE
:1028A00004461068D168536910F00F0F52D003F03E
:1028B000010501F490762E435FD0C20705D0CA050A
:1028C00003D5E26B42F00102E263420705D5DA0765
:1028D00003D0E26B42F00202E263820705D5DA0719
:1028E00003D0E26B42F00402E263020707D501F075
:1028F00020022A4303D0E26B42F00802E263E26B5B
:10290000002A33D0800604D5880602D5204601F07F
:1029100059FB20684069E16BC0F38010090700D4BF
:1029200028B3204601F040FB2068416949061AD5CA
:10293000416921F040014161606BA0B12D494163C3
:10294000606BFEF725F8002810D0606B416BBDE886
:1029500070400847830610D58B060ED52046BDE88B
:10296000704001F02FBB2046FFF796FF70BD204658
:10297000FFF792FF0020E06370BD03062BD50B0626
:1029800029D594F839002128F6D1A068B0F5805FE8
:1029900001D12069B0B1206A411C21622168007810
:1029A0004860E08C401E0004000CE084E4D1206804
:1029B000C16821F08001C1602068C16841F0400118
:1029C000C16070BD206A0088C0F308005060206AB2
:1029D000801C2062E5E74006F3D54806F1D5D168B2
:1029E000204621F04001D160202184F8391000F008
:1029F000D0F870BD993F000870B5040004D094F879
:102A00003900002510B106E0012070BD84F838506F
:102A1000204600F023F8242084F839002068C1689B
:102A200021F40051C160204601F012FB20680169C9
:102A300021F4904101612068416921F02A0141613E
:102A40002068C16841F40051C160E563202084F82A
:102A5000390084F83A00002070BD000030B585B020
:102A60000024009401940294039400681849884259
:102A70002CD11848816941F480418161816901F458
:102A800080410491816941F0040181618069124DA6
:102A900000F0040004904FF40070009002200190B8
:102AA0000320039069462846FDF7D4FF2815CDE999
:102AB0000004694628460294FDF7CCFF0022052158
:102AC0002520FEF741FD2520FEF730FD05B030BD85
:102AD000003801400010024000080140704700002B
:102AE0002DE9F843044690F839001F4616460D4676
:102AF00020284CD1C5B1BEB194F83800012846D089
:102B0000012084F838004FF00008C4F83C802120F0
:102B100084F83900FEF794F8A6848146E684A0681C
:102B2000B0F5805F03D004E00120BDE8F8832069A0
:102B300028B12E465FF0000584F838800EE00026AC
:102B4000FAE78021204601F0DFFAA0B9AEB116F80D
:102B5000010B21684860E08C401EE084E08C4B460D
:102B60004FF0000200970028EBD14FF040012046C3
:102B700001F0CAFA30B10320D7E735F8020BC0F3F1
:102B80000800E6E7202084F839000020CDE7022085
:102B9000CBE77047FEE700000148FEF759B8000098
:102BA000B001002038B5406A002190F83D202B4B41
:102BB00046F2A8141B68B3FBF4F3C3EBC30303EBA7
:102BC000830300933BB15B1E009303681B689B0566
:102BD00005D5009BF6E7036C43F020030364436BC9
:102BE00003B19962836B03B1996203681C6824F492
:102BF00080641C604185436B03B15963836B03B1EF
:102C0000596303681C6824F001041C6090F83D407F
:102C10002023602C0BD0282434EA02020FD080F845
:102C20003D3080F83E1000BFFEF745F938BD80F812
:102C30003D3080F83E100164FEF708F838BD0268A8
:102C4000136843F0010313600268136843F4806360
:102C50001360016380F83D40E6E700005400002067
:102C600070B5044690F83D0094F83E10102901D04C
:102C7000402906D1222804D121680A6822F4006282
:102C80000A60282131EA00024FF000054FF02006CB
:102C900026D021684968090505D4602803D084F846
:102CA0003D6084F83E50256320684168090537D5AA
:102CB000416821F400614160606B3D4990F821203A
:102CC000012A11D04163606BFDF762FE38B32068C2
:102CD000016821F00101016084F83D60606B1CE037
:102CE000256384F83D10DFE7A06B4163A06BFDF71F
:102CF0004FFEA0B120684169C943490605D4006967
:102D0000616A0870606A401C60622068016821F096
:102D10000101016084F83D60A06B416B884710E0C1
:102D200094F83D10602910D04169C943490605D483
:102D30000069616A0870606A401C60622046FEF7A4
:102D4000BAF8206CC1071CD115E084F83D602564F9
:102D50004169C943490605D40069616A0870606A1F
:102D6000401C60622068016821F00101016020467A
:102D7000FDF76CFFE5E7810703D4410701D40007A5
:102D800004D52068416821F4E061416094F83D0079
:102D9000216C49070BD5282809D10648E062256334
:102DA00084F83D6084F83E502046FEF749F970BD36
:102DB000A52B00080000FFFF01684A69D2435205B5
:102DC0000FD46FF480624A61002140F8301F202246
:102DD00042738173026942F00402026101730120AF
:102DE00070470020704710B5C26A438D0168042BFC
:102DF00006D0438D032B08D0438D022B1DD012E04B
:102E00004A6822F480624A600CE04B6823F48063D5
:102E10004B60042A06D0022A04D001680A6822F412
:102E200080620A6001680969426A1170416A491C3E
:102E30004162418D491E418510BD012A30D0102AC2
:102E40002ED0042A30D0022A2ED00A6842F4007212
:102E50000A6001680969426A1170416A491C41624D
:102E6000428D521E4285026812690A70416A491CED
:102E70004162418D491E418501684A6822F44072D1
:102E80004A60202180F83D1090F83E200021402A21
:102E900080F83E100CD012210163FEF7D2F810BD6D
:102EA0000A6822F48062D3E70A6842F48062CFE7BE
:102EB0000163FEF7C8F810BD38B590F83D1022291F
:102EC00014D1418D032912D901680969426A117030
:102ED000416A491C4162418D491E4185418D03294A
:102EE00004D10068416821F48061416038BDC26A44
:102EF000022AFBD0012901D00029F7D1274946F247
:102F0000A81300220968B1FBF3F101EB81010091E4
:102F100001682023009C641E009422D00C68A40544
:102F2000F8D40C6824F480640C6001684C6824F4C4
:102F3000E0644C6001680969446A2170416A491C77
:102F40004162418D491E418580F83D3090F83E1028
:102F500080F83E2040291DD012210163FEF771F850
:102F600038BD046C44F0200404644C6824F4E0642C
:102F70004C6001680969446A2170416A491C4162D8
:102F8000418D491E418580F83D3080F83E20FDF797
:102F900092FF38BD0263FEF756F838BD540000209A
:102FA00010B5C16A90F83D20212A0BD1428D52B153
:102FB000416A026809781161416A491C4162418D88
:102FC000491E418510BD00222023082910D0202948
:102FD0000ED011F5803F0BD001684C6824F4E064FA
:102FE0004C601121016380F83E2080F83D300EE0F6
:102FF00001684C6824F4E0644C6001680C6844F497
:1030000000740C60026380F83D3080F83E20FEF7CB
:1030100019F810BD10B590F83D1090F83E30C26A16
:10302000048DB4B1212903D0402B11D122290FD115
:10303000418DE1B390F83E10402942D0416A0268C8
:1030400009781161416A491C4162418D491E4185DF
:1030500010BD2129E8D120230021082A13D0202ADD
:1030600011D012F5803F0ED00268546824F4E06459
:1030700054601122026380F83E1080F83D3000BF9A
:10308000FDF7E0FF10BD0268546824F4E06454606A
:103090000268146844F400741460016380F83D30E1
:1030A00090F83E2080F83E10402AE9D100E002E08E
:1030B000FDF7CAFF10BD0068416821F480614160DE
:1030C00010BDBDE8104000F0F3B8000078B590F8EE
:1030D0003E50C26A046B90F83D6000230168222EC6
:1030E00073D1066D0EB9402D6FD0056D1DB9056900
:1030F000B5F5404F1BD0458D95B3468D484D012EFB
:1031000020D0448D022C4DD00C6844F480640C60B7
:1031100001684C68240579D5AA4273D0012A71D080
:10312000082A6FD0102A6DD0202A6BD06EE04A6931
:103130008A6900920A6842F480720A60016D491C33
:10314000016578BDAA4214D10A6822F480620A603F
:1031500001684A68120504D50A6822F4806217E003
:10316000FFE74A698A6900920A6842F400720A60BD
:1031700050E0082A10D0202A0ED0122C0AD0042A9F
:1031800003D0022A01D0102AE6D10A6842F48062F4
:103190000A603BE0012ADFD00A6822F480620A60FC
:1031A0000168DEE7042A11D0022A0FD0102A0DD0C0
:1031B0000C6844F400640C6001684C698C690094EC
:1031C0000C6824F480640C6008E025E00C6844F48A
:1031D00080640C6001684C698969009101684C68E1
:1031E000240517D5AA4207D0012A05D0082A03D002
:1031F000102A01D0202A0DD14A6842F480524A6038
:1032000008E0FFE74A6842F480524A6001684A6970
:1032100089690091036578BD48698869009078BD27
:103220000000FFFF90F83E10402910D00169B1F571
:10323000804F19D0016DA9B3016D012910D1416CE6
:103240005FF0F10201F4407142EAD11106E0016D34
:103250000029416C05D0C9B241F00101006801614B
:10326000704701F0FE01F9E790F83D102129416C0B
:1032700009D0C9B241F0010102681161416B29B165
:10328000896A49B902E001F0FE01F5E7816B002986
:10329000E6D0896A0029E3D00068416841F4006102
:1032A00041607047FFE7416CF02201F44071CBE7C9
:1032B00010B590F83D10026D22B3026D012A2FD097
:1032C000026D022A1DD1222931D0428D0AB1212955
:1032D00033D0428D002A14D1212912D101684A68C5
:1032E00022F4E0624A6001680A6842F400720A60EF
:1032F00000210163202280F83D2080F83E10FDF778
:10330000A3FE10BDC16C0129816C02D0C1F307215D
:1033100008E00268C9B21161016D891C016510BD28
:10332000816CC9B202681161016D491CF6E7006841
:10333000016841F48071016010BD416A026809783A
:103340001161416A491C4162418D491E418510BD90
:103350002DE9F84F0446006889460B9D01689846A0
:10336000174641F4806101602068016841F4807172
:10337000016000954FF0011B0022594620460A9B30
:1033800000F08CF94FF4007A40B120680068C00565
:1033900001D5C4F840A00320BDE8F88F216809F0EA
:1033A000FE0008612B46284920460A9A00F0AAF937
:1033B000F0BB20684169806900902A4620460A993E
:1033C00000F01EFA40B1206C04283AD12068016850
:1033D00041F40071016034E0FEB2B8F1010F09D090
:1033E0002168380A08612A4620460A9900F008FA3E
:1033F0000028E8D1206806612A4620460A9900F094
:10340000FFF90028DFD12068016841F48071016074
:1034100000950022594620460A9B00F03FF90028FB
:10342000B3D1216809F0FF0040F00100086100E01D
:1034300007E02B46044920460A9A00F063F9002869
:10344000AAD00120A8E70000020001002DE9F843FE
:10345000044600680D46DDE908970168984616465F
:1034600041F4807101604B4600224FF0011120466B
:10347000009700F013F948B120680068C00502D534
:103480004FF4007020640320BDE8F883216805F044
:10349000FE0008613B464A461549204600F032F9D5
:1034A00088B920684169806900903A4649462046BB
:1034B00000F0A6F948B1206C042804D12068016806
:1034C00041F4007101600120DEE7F5B2B8F1010FAF
:1034D00009D02168300A08613A464946204600F082
:1034E0008FF90028E7D1206805610020CCE70000B3
:1034F00002000100F8B590F83D600446006841689C
:1035000021F4E06141602068002541690091016873
:1035100041F0010101602068016821F480610160CF
:1035200020684168090520D5474F222E48D02A2E11
:1035300046D0616B096849686185618D19B1216C5C
:1035400041F004012164416821F400614160606B35
:10355000FDF76AFA012808D0606B4763606BFDF7DE
:1035600017FA10B1606B416B8847608D08B3206813
:103570004169C943490708D40069616A0870606AF3
:10358000401C6062608D401E608520684169C943AF
:10359000490608D40069616A0870606A401C60626C
:1035A000608D401E6085608D18B1206C40F0040075
:1035B0002064206C00B32046BDE8F840FFF750BB04
:1035C000A16B096849686185618D19B1216C41F071
:1035D00004012164416821F400614160A06BFDF7A2
:1035E00023FA0128C1D0A06B4763A06BFDF7D0F987
:1035F0000028BAD0A06BB6E72A2E06D12563282072
:1036000084F83D002046FDF717FF94F83D10202078
:1036100028290DD0216B222901D0222E07D1256324
:1036200084F83D0084F83E502046FDF705FFF8BDC4
:103630000649E162256384F83D0084F83E50204647
:10364000FDF7FEFCF8BD0000A52B00080000FFFF01
:1036500070B516460D4604460DE02046FFF7ACFB5C
:1036600008B1012070BD681C05D0FDF7E9FA801B88
:10367000A84207D835B120684069C0434007ECD460
:10368000002070BD002044F8300F20216173A0732A
:10369000216941F0200121612073E2E72DE9F04723
:1036A0001E4690460D460446C1F30747DDF82090BC
:1036B00008E0701C06D0FDF7C3FAA0EB0900B04289
:1036C0000FD876B12068012F18D0806925EA000054
:1036D0000004000C14D000214145EAD00020BDE8D0
:1036E000F087002044F8300F20216173A073216916
:1036F00041F02001216120730120F0E74069E5E7F6
:103700000121E9E72DE9F0479A4691460E46044625
:1037100000254FF02008C1F3074725E020684069E5
:10372000C043400514D42068016841F40071016071
:1037300021686FF480604861256384F83D8084F8D7
:103740003E50206C40F00400206484F83C501FE0A0
:10375000B9F1FF3F08D0FDF773FAA0EB0A01494524
:103760000CD8B9F1000F09D02068012F13D080695F
:1037700026EA00000004000C0BD0CFE744F8305FCD
:1037800084F80D80A573206940F020002061257326
:103790000120BDE8F0874069EAE72DE9F041002506
:1037A00090460E460446202717E04069C043C006F5
:1037B0000CD454F8301B6FF01000486144F81059D5
:1037C0006777A577206A2062257717E0FDF738FA3A
:1037D000A0EB0800B04208D83EB120684169C94357
:1037E0004906E2D40020BDE8F08144F8305F6773F9
:1037F000A573206940F02000206125730120F2E7C5
:1038000070B516460D4604460DE02046FFF7D4FA83
:1038100008B1012070BD681C05D0FDF711FA801BAE
:10382000A84207D835B120684069C0430006ECD4EF
:10383000002070BD002044F8300F20216173A07378
:10384000216941F0200121612073E2E730B585B0A4
:10385000002420480094019402940394816941F06B
:1038600010018161816901F010010491816941F0C9
:1038700020018161816901F020010491816941F099
:1038800004018161816901F004010491816941F0C1
:10389000080181618069104D00F008000490002249
:1038A00006212846FDF7C6F9062000900120CDE943
:1038B00001040220039069462846FDF7CBF8082052
:1038C000CDE90004694628460294FDF7C3F805B027
:1038D00030BD000000100240000801401CB500246B
:1038E0001A480194184900940160611E41604FF428
:1038F00080718160FEF78AFA08B172B6FEE78DF832
:1039000004408DF805408DF80640002201A90F48BB
:10391000FEF752FB08B172B6FEE702208DF80000F8
:1039200003208DF8010009208DF8020015208DF884
:103930000300002269460548FEF7DCFA002801D0A2
:1039400072B6FEE71CBD0000002800400402002003
:103950000F4810B50D4901604FF48271416000219C
:103960008160C1604FF400720161C0E90512282234
:10397000C0E90721416281620A21C162FEF78FFB23
:10398000002801D072B6FEE710BD000000300140F3
:1039900018020020FEE7FEE7010901EB810100F0BB
:1039A0000F0000EB4100C0B27047002102E00A386E
:1039B000C0B2491C0A28FAD2090740EA11607047D0
:1039C0002DE9F04104460025C07B627BA37B42E0E9
:1039D000012A16D0032A14D0052A12D0072A10D0A3
:1039E000082A0ED00A2A0CD00C2A0AD0042A10D099
:1039F000062A0ED0092A0CD00B2A0AD0022A0DD092
:103A000028E01F2B0CD30C2A05D101221346401CA1
:103A100020E01E2B04D30123521C1BE01C2B02D2DE
:103A200003F1010316E011D183B29E0710D1642681
:103A3000B3FBF6F706FB173636B94FF4C876B3FB7F
:103A4000F6F706FB17331BB91D2303E01D2B01D12D
:103A5000032201236D1C8D42BAD3D1B2E07361738E
:103A6000DAB2A27300F057F82073BDE8F08170B5A8
:103A70000446FDF7E5F805464FF47A7606E0FDF7D3
:103A8000DFF8401BB04201D9032070BD20684068B8
:103A90008006F4D52068416841F0100141600020A3
:103AA00070BD000070B504460068416821F0100147
:103AB0004160FDF7C5F805464FF47A7607E000BF90
:103AC000FDF7BEF8401BB04201D9032070BD20684D
:103AD00040688006F4D5002070BD00000148FEF764
:103AE000E3B80000040200200168086A496A89B24C
:103AF00041EA00407047006881698AB2C1698BB2AF
:103B0000816989B28A4203D0C06961F31F4070475E
:103B100043EA02407047F0B56424C1EBC1030927B2
:103B2000A500072603EB01130329B3FBF7F100F50A
:103B3000FA60114401440AD2401EB0FBF4F201EBDA
:103B40009001B0FBF5F0891A0844001D08E0B0FBB5
:103B5000F4F201EB9001B0FBF5F0891A0844801CE7
:103B6000B0FBF6F106FB1100C0B2F0BD70B50D461A
:103B700006460024FFF77BFF48B93168280C08622D
:103B80003168A8B248623046FFF78CFF00B10124CB
:103B9000204670BD70B50D4606460024FFF767FF4E
:103BA00048B93168280C88613168A8B2C8613046CC
:103BB000FFF778FF00B10124204670BDF8B5044638
:103BC00040684FF48273984217D1A0684FF4806523
:103BD000B0F5004F01D0A8420FD12068066826F04A
:103BE000400606606068984207D1A068A84204D1E8
:103BF00000920B460022012103E000920B460022B6
:103C00008021204600F018F8002804D0606D40F0B4
:103C1000200060650320F8BD38B50B4600920446CD
:103C20000022802100F008F8002804D0606D40F0E8
:103C300020006065032038BD2DE9F8431E469146FB
:103C400088460446089DFCF7FBFF401B351AFCF72D
:103C5000F7FF074625480068C0F3CB30684338E0DB
:103C6000701C37D0FCF7ECFFC01BA84203D215B183
:103C7000009860B32CE02068416821F0E0014160C9
:103C80006068B0F5827F0BD1A068B0F5004F02D01C
:103C9000B0F5806F04D12068016821F04001016017
:103CA000A06AB0F5005F09D12068016821F40051D5
:103CB00001602068016841F400510160012084F82E
:103CC0005100002084F850000320BDE8F88300254F
:103CD000401E00902068816838EA010004D000216D
:103CE0004945BDD10020F0E70121F9E7540000204B
:103CF000642001F02DFFFBE71C4C1D4D4FF4FA66CC
:103D00001A4800F0CDFE2068FCF780FC02461748F8
:103D10000B4618A1703800F031FA144917A0703919
:103D200001F0CAFB29466068FCF7B4FAFCF755FCC1
:103D300002460E4812A1703800F020FA0B4912A07A
:103D4000703901F0B9FBA068FCF760FC0246074837
:103D50000B460EA1703800F011FA04490DA070391D
:103D600001F0AAFB304601F0F3FEC9E72003002072
:103D7000CA9F443A252E3166202A4300745F5400BE
:103D80002564206D6D486700745F5000252E3166F4
:103D900020252500745F480040F6B83401F0D6FBBA
:103DA00070B12021084801F086FD074A07A1A2F161
:103DB0003C0000F0E3F9044905A03C3901F07CFB2C
:103DC000204601F0C5FEE9E7EC0200202573000063
:103DD000745F74656D70310008B5174C4FF49676BA
:103DE000E51C002214491548FDF7A3FFA0780090B8
:103DF00012486378227812A1AC3000F0BFF90F4965
:103E000013A0AC3101F058FB0B490022C91C0B4830
:103E1000FDF768FFE878009008486B78AA780EA153
:103E2000AC3000F0ABF905490FA0AC3101F044FB18
:103E3000304601F08DFED4E723000020040200206C
:103E4000253032643A253032643A2530326400003D
:103E5000745F74696D650000253032642D25303241
:103E6000642D256400000000745F646174650000C7
:103E700010B5502080F31188BFF34F8FBFF36F8FC1
:103E800002F0BCFE18B104494FF0805008600020D9
:103E900080F3118810BD000004ED00E070B594B00F
:103EA00028216846FCF7E4F914210AA8FCF7E0F998
:103EB000002501240F951195052012950090CDE95C
:103EC000025410954FF48030019002260494CDE9FD
:103ED00007604FF4E01009906846FDF753FD08B104
:103EE00072B6FEE70F20CDE90A064FF48060CDE9F7
:103EF0000C5002210AA80E95FDF738FC08B172B6E5
:103F0000FEE74FF48070CDE90F400FA8FDF7B8FB36
:103F1000002801D072B6FEE714B070BD70470000F3
:103F20000148FEF7FCBB00008C040020F0B50268DD
:103F3000164B174C174D4FF08047984205D0B842AA
:103F400003D0A04201D0A84203D122F070064A68F3
:103F50003243984205D0B84203D0A04201D0A842D3
:103F600003D122F44074CA6822434C6922F08002D3
:103F7000224302608A68C2620A688262984201D162
:103F80000969016301214161F0BD0000002C01407D
:103F9000000400400008004010B5406A0021C185BF
:103FA000C184FEF779FC10BD0168CA6822F49072E2
:103FB000CA6001684A6922F001024A61202180F842
:103FC0003A10704710B590F83A10222901D002201B
:103FD00010BD82684FF480539A4201D1016921B12A
:103FE000816A9A421BD04AB10AE00268816A52682B
:103FF000C2F308020A80816A891C08E0026972B172
:104000000268526802F07F020A70816A491C81626C
:10401000C18D491E0904090CC18503D016E0026850
:104020005268F1E70168CA6822F02002CA6001689C
:10403000CA6822F48072CA6001684A6922F00102EB
:104040004A61202180F83A10FEF748FD002010BD9B
:1040500070B5044600680169E26821F440511143DB
:1040600001612169A0680843616908432168CA6841
:1040700041F20C639A430243CA6020684169A26915
:1040800021F44071114341611E492068884202D1E8
:10409000FDF732FC01E0FDF71FFC00EBC00101EB76
:1040A0000012606864218000B2FBF0F3B3FBF1F30F
:1040B0006FF018067343B2FBF0F5B2FBF0F605EBB8
:1040C0008305322303EB0515B5FBF1F5B6FBF1F6DD
:1040D00005F0F00505EB0615B2FBF0F6B2FBF0F0CB
:1040E000B0FBF1F06FF01802504306EB800003EBD9
:1040F0000010B0FBF1F0216800F00F002844886048
:1041000070BD0000003801402DE9F0419846174687
:104110000E460446069D1DE0681C1BD02DB1FCF721
:104120008FFDA0EB0800A84214D92068C16821F4D3
:10413000D071C1602068416921F0010141612020F6
:1041400084F8390084F83A00002084F8380003200D
:10415000BDE8F0812068006836EA000004D0002045
:10416000B842D9D00020F3E70120F9E70148FEF773
:1041700095BB000070020020FEE700000FB4084B62
:1041800010B504A902AA039800F0EEF8044602A9AB
:10419000002000F080FC204610BC5DF814FB0000FD
:1041A000974A00080907090E002804DB00F1E02007
:1041B00080F80014704700F00F0000F1E02080F854
:1041C000141D704702E008C8121F08C1002AFAD166
:1041D00070477047002001E001C1121F002AFBD187
:1041E000704700002DE9FF5F82B00021DDE9043057
:1041F000020DDDF840B0034318D044F61050A2F28F
:10420000FF3242431514119801281FD0A5EB0B0073
:10421000401C5FEA000A4FF000064E4FDFF838916D
:10422000B046504615D5CAF1000413E01198012498
:104230004AA3012801D16FEA0B010298119AC0E943
:104240000031C0E9024206B0BDE8F09FCBF10000AA
:10425000DFE704460021404A491842EB0450CDE90B
:10426000001012E0E00707D032463B464046494680
:10427000FCF733F98046894632463B4610461946DC
:10428000FCF72BF906460F466410002CEAD1DDE955
:104290000401DDE90023BAF1000F06DAFCF71DF98D
:1042A00042464B46FCF719F905E0FCF7BEFA4246D8
:1042B0004B46FCF7BAFA04460E460022284BFCF7A0
:1042C0003BFB03D84FF0FF30014607E00022254BAF
:1042D00020463146FCF75AF8FCF716FB102409E09B
:1042E000002C0ADB0A220023FCF7B9F9039B3032C9
:1042F0001A55641E50EA0102F2D1641C039AC4F1FB
:1043000011031444119A012A03D0012208430DD14C
:104310000AE0084304D000204FF0110B119072E71F
:10432000A3EB0B056D1E0DE05B4504DD4FF00002B5
:1043300005F1010504E003DA4FF00002A5F10105E3
:10434000002AECD002981199C0E90231C0E9004579
:1043500079E70000000014400000F03F300000004A
:104360000000F0430000E03F2DE9FF4F95B09B4671
:104370008946064600250FE2252877D100242746E6
:10438000F84A0121059400E0044316F8013F203B60
:1043900001FA03F01042F7D130782A2811D06FF0DB
:1043A0002F033078A0F13002092A16D8059A44F07C
:1043B000020402EB820203EB42021044761C0590D9
:1043C000EFE759F8042B0592002A03DA504244F42F
:1043D0000054059044F00204761C30782E2816D143
:1043E00016F8010F44F004042A280DD06FF02F02B4
:1043F0003078A0F13003092B09D807EB870302EBD3
:104400004303C718761CF3E759F8047B761C307811
:104410006C280FD006DC4C2817D068280DD06A28ED
:1044200014D104E0742810D07A280FD10DE044F4A0
:1044300000140AE044F4801401E044F4401472785B
:10444000824202D104F58014761C761C30786628EE
:104450000BD013DC582877D009DC002875D045280C
:10446000F6D04628F4D047281AD19DE118E06328F9
:1044700035D0642879D0652812D195E1702873D0A1
:1044800008DC6728F1D069286FD06E280DD06F281E
:1044900006D1B5E073282CD0752875D0782874D053
:1044A0005A46179990476D1C75E1C4F302500228D3
:1044B00009D003280DD0D9F8001004280DD00D60C4
:1044C00009F1040967E1D9F80010EA17C1E90052BF
:1044D000F6E7D9F800100D80F2E70D70F0E719F853
:1044E000041B8DF8001000208DF80100EA46012021
:1044F00003E059F804AB4FF0FF3061074FF00001C3
:1045000002D40DE008F101018846B9420FDA804576
:10451000F8DB1AF808100029F4D108E008F10101CD
:1045200088468142FADB1AF808100029F6D105986E
:104530005B46A0EB080721463846179A00F094FA2C
:10454000284400EB080507E04DE029E10DE01AF8EA
:10455000010B5A4617999047B8F10108F7D25B460C
:1045600021463846179A13E142E00A220092C4F32A
:1045700002524FF0000A022A08D059F804CB032A4D
:104580004FEAEC710AD00DE029E02AE009F10701B9
:1045900021F00702F2E802C1914609E00FFA8CFC13
:1045A0004FEAEC71042A03D14FFA8CFC4FEAEC710C
:1045B000002907DA0A460021DCF1000C61EB020158
:1045C0002D2202E0220504D52B228DF804200122A1
:1045D00003E0E20701D02022F7E7904659E00A21E4
:1045E00002E010220DE010214FF0000A00910BE0D4
:1045F00010224FF0000A44F004040827009203E060
:1046000008224FF0000A0092C4F30252022A05D099
:1046100059F804CB0021032A08D009E009F1070169
:1046200021F00702F2E802C1914605E01FFA8CFC76
:10463000042A01D10CF0FF0C4FF00008220728D506
:10464000702806D0009B83F0100353EA0A0305D0BC
:104650000EE040228DF80420012208E05CEA01020D
:1046600006D030228DF804208DF8050002229046F5
:10467000009B83F0080353EA0A030AD15CEA0102B3
:1046800001D1620705D530228DF804204FF00108D2
:104690007F1E582804D034A003900EA802900DE08D
:1046A00036A0F9E753466046009AFBF7D8FF8446E8
:1046B0000398825C0298401E029002705CEA01003E
:1046C000F0D1029806A9081A00F1200A600702D565
:1046D00024F4803400E00127574502DDA7EB0A00EF
:1046E00000E0002000EB0A01009005984144401AC8
:1046F0000590E00306D45B462146179A059800F022
:10470000B3F90544002706E001A85A46C05D179991
:1047100090476D1C7F1C4745F6DBE0030CD55B46DC
:104720002146179A059800F09FF9054404E03020CF
:104730005A46179990476D1C0099481E0090002911
:10474000F5DC08E0029802995A460078491C02916B
:10475000179990476D1CBAF10001AAF1010AF1DC2A
:1047600065E1000009280100303132333435363735
:1047700038396162636465660000000030313233AD
:10478000343536373839414243444546000000004D
:1047900000F058F90544761C307800287FF4ECAD21
:1047A00019B02846BDE8F08F620700D4062709F14A
:1047B000070222F0070CFCE80223E14603F0004860
:1047C0005FEA080C02D00FF2702C0DE05FEA045C87
:1047D00002D50FF2682C07E05FEAC47C02D00FF22A
:1047E000602C01E0AFF2700C4FF0FF3823F0004373
:1047F000CDF850C065280CD006DC452809D04628E5
:104800001DD047283DD13DE0662818D067287ED1CD
:1048100038E00021112F01DB112000E0781CCDE9E8
:10482000000106A90EA8FFF7DDFCDDE90F010E9AD5
:1048300003910021009207F1010A04914DE04FF02D
:1048400000400097CDE9011006A90EA8FFF7CAFCA9
:10485000DDE90F0203920E9B11990022DDF80CA0F6
:104860000093049211B9791C00EB010AB7EB0A001E
:1048700004D4C0F1FF3007F1010A0490AAEB07004D
:10488000019044E0012F00DA01270021112F01DD02
:10489000112000E03846CDE9000106A90EA8FFF777
:1048A000A1FCDDE90F010E9A039100210491009211
:1048B000BA4621070CD40399514500DA8A46BAF169
:1048C000010F05DD009AAAF10101515C302908D0E1
:1048D000B84202DA10F1040F06DA0121CDE9011025
:1048E00015E0AAF10101E9E7002805DC049901447B
:1048F0000491AAEB000102E0411C514500DD8A460B
:104900000499401A401C01904FF00040029020078B
:1049100004D40198504501DBCDF8048000208DF8C7
:104920004F0002980DF14F07B0F1004F25D02B201A
:104930000E9002984FF0020800280CDA40420290D4
:104940002D200E9007E00A210298FBF772FE30310D
:10495000029007F8011DB8F10001A8F10108F2DC8E
:1049600002980028EFD1791E0E980870307800F078
:10497000200040F0450007F8020D12A8C01B00F10E
:1049800007081498007800B1012000EB0A01019893
:1049900001EBE07105984144401A401E0590E00388
:1049A00006D45B462146179A059800F05DF8054449
:1049B0001498007818B15A46179990476D1CE00377
:1049C00024D55B462146179A059800F04DF805441A
:1049D0001CE00498002807DBDDE90301884203DDC1
:1049E0000098405C179901E0179930205A4690478B
:1049F000049805F10105401C04900198401E0190A7
:104A000004D12E205A46179990476D1CBAF1000127
:104A1000AAF1010ADDDC05E017F8010B5A461799E7
:104A200090476D1CB8F10001A8F10108F4DC5B4669
:104A30002146179A0598ABE62D0000002B000000D8
:104A4000200000002DE9F041044600251E461746CF
:104A5000880404D405E039462020B0476D1C641E4C
:104A6000F9D52846BDE8F0812DE9F041044600253E
:104A70001E469046C80301D5302700E02027880451
:104A800004D505E041463846B0476D1C641EF9D593
:104A90002846BDE8F0810A68531C0B60107070470F
:104AA0002DE9F04F85B0054602A9FA2000F0D1FBB0
:104AB0006946F72000F0CDFB03A9FD2000F0BEFB06
:104AC0000298944C000902902288C108A1EB42018F
:104AD000C2EB1010B4F902304043B4F9042059433A
:104AE000000B8D4EC90A504301EB9030306000EB53
:104AF000800080300012FBF762FD8849FBF7FCFB69
:104B000028600098864A0009009001903068B4F946
:104B100010608146C1178018A0FB0023A2FB068C01
:104B200041F1FF3101FB003300FB013E0EFB06C3E8
:104B30009246F71702FB0732B4F90E30A3FB007C54
:104B4000DE1706FB00C603FB01635B047E0443EA39
:104B5000D73316EB08065341B4F90C20361C0496E3
:104B6000B4F90A6043EBC20BAAFB06C80EFB06832E
:104B70004FEAE6770AFB0732B4F908604FEA1C23D4
:104B8000A6FB00C84FEAE67707FB008006FB0100A2
:104B90004FEA003143EA02634FEA0C3041EA1C510C
:104BA000181841EB2222001C42F50043E288002144
:104BB000A0FB027603FB026200FB01204210C31738
:104BC00052EA030000D168600198049EC0F580108D
:104BD0004108C707BF1B40F6354CA7FB0C0861EB2B
:104BE0000B0101FB0C81002607FB0611FBF7E6FA1F
:104BF000B4F91660420B42EAC142A6FB02C8F7179D
:104C000007FB02874B1306FB0376ACFB027806FB1F
:104C100002820CFB03237A0E42EAC3124FEA636856
:104C2000B4F91430A3FB007CDE1706FB00C603FBBF
:104C30000166FB0C801843EA463341EB0801C018BB
:104C400041EBE6414FEA1022B4F9120042EA016258
:104C50004FEA21274FEAE0714FEA011141EA107152
:104C60004FEA001016184F412E49F0B2A0FB010187
:104C70002D4A0023FBF7A2FA310A41EA07614FF4FB
:104C80007A72A1FB02124018FBF7A2FC2349FBF742
:104C900033FB6860BDF80C00E28B01048908A1EBCE
:104CA0000251A9F59630B4F92020237F02FB1011A0
:104CB00094F92220434342434FF40040921200EB08
:104CC000E32042434FF4001000EBA220B4F91A2075
:104CD00001F58041504300F50050C9138013414352
:104CE000C8134043227EC0115043B1EB201001D5C0
:104CF000002004E04FF0C851884200DD0846001350
:104D0000FBF75DFC6FF00901FBF734FBA86005B011
:104D1000BDE8F08FF2000020000000200000C84233
:104D2000000CFEFFE1F50500A086010010B5D020C3
:104D300000F06EFA024616A11948FFF71FFA18484C
:104D4000FBF7A1FA82B24FF4805315491548FDF7DD
:104D5000C7FEB621E02000F001FB00BF00F095FA8D
:104D6000C007FBD1A02000F0E9FA002000F094FA7F
:104D7000202000F0D4FA042000F0C2FA012000F054
:104D8000A9FA00F011F8BDE81040032000F093BA32
:104D900049443A203078253032580D0A000000008E
:104DA000C00000207002002070B5CF49882000F0BC
:104DB00067FACD4CCDA1A4F132002288FFF7DEF9CD
:104DC000A4F13200FBF75FFA82B24FF480552B4614
:104DD000A4F13201C948FDF783FEA11C8A2000F02E
:104DE0004AFAB4F90220C6A1A4F13200FFF7C6F9CD
:104DF000A4F13200FBF747FA82B22B46A4F132014C
:104E0000BE48FDF76DFE211D8C2000F034FAB4F988
:104E10000420BFA1A4F13200FFF7B0F9A4F13200E1
:104E2000FBF731FA82B22B46A4F13201B348FDF709
:104E300057FEA11D8E2000F023FAE288B8A1A4F14C
:104E40003200FFF79BF9A4F13200FBF71CFA82B2A3
:104E50002B46A4F13201A948FDF742FE04F10801F6
:104E6000902000F008FAB4F90820B1A1A4F13200B2
:104E7000FFF784F9A4F13200FBF705FA82B22B4662
:104E8000A4F132019D48FDF72BFE04F10A019220A6
:104E900000F0F1F9B4F90A20A9A1A4F13200FFF75A
:104EA0006DF9A4F13200FBF7EEF982B22B46A4F1C2
:104EB00032019248FDF714FE04F10C01942000F039
:104EC000DAF9B4F90C20A2A1A4F13200FFF756F9E7
:104ED000A4F13200FBF7D7F982B22B46A4F13201DC
:104EE0008648FDF7FDFD04F10E01962000F0C3F9A0
:104EF000B4F90E209AA1A4F13200FFF73FF9A4F112
:104F00003200FBF7C0F982B22B46A4F132017B4894
:104F1000FDF7E6FD04F11001982000F0ACF9B4F9BA
:104F2000102093A1A4F13200FFF728F9A4F1320078
:104F3000FBF7A9F982B22B46A4F132016F48FDF7C5
:104F4000CFFD04F112019A2000F095F9B4F9122076
:104F50008BA1A4F13200FFF711F9A4F13200FBF7A5
:104F600092F982B22B46A4F132016448FDF7B8FDF4
:104F700004F114019C2000F07EF9B4F9142084A1FE
:104F8000A4F13200FFF7FAF8A4F13200FBF77BF945
:104F900082B22B46A4F132015848FDF7A1FD04F17D
:104FA00016019E2000F067F9B4F916207CA1A4F147
:104FB0003200FFF7E3F8A4F13200FBF764F982B2A4
:104FC0002B46A4F132014D48FDF78AFDA12000F0E7
:104FD0001FF92076024676A1A4F13200FFF7CEF841
:104FE000A4F13200FBF74FF982B22B46A4F1320153
:104FF0004248FDF775FD04F11A01E12000F03BF98C
:10500000B4F91A206EA1A4F13200FFF7B7F8A4F1A9
:105010003200FBF738F982B22B46A4F1320137484F
:10502000FDF75EFDE32000F0F3F82077024668A16B
:10503000A4F13200FFF7A2F8A4F13200FBF723F944
:1050400082B22B46A4F132012C48FDF749FDE42041
:1050500000F0DEF80646E52000F0DAF866F31F10EF
:10506000E08302465EA1A4F13200FFF787F8A4F1C5
:105070003200FBF708F982B22B46A4F132011F4837
:10508000FDF72EFDE62000F0C3F80601E52000F054
:10509000BFF846EA1012228455A1A4F13200FFF7AE
:1050A0006DF8A4F13200FBF7EEF882B22B46A4F1C2
:1050B00032011248FDF714FDE72000F0A9F884F84A
:1050C0002200227F4EA1A4F13200FFF757F8A4F18D
:1050D0003200FBF7D8F82B46A4F13201BDE870404E
:1050E00082B20648FDF7FCBCF20000204449475F4D
:1050F00054313A2025750D0A00000000700200208E
:105100004449475F54323A2025640D0A00000000EC
:105110004449475F54333A2025640D0A00000000DB
:105120004449475F50313A2025750D0A00000000C0
:105130004449475F50323A2025640D0A00000000C0
:105140004449475F50333A2025640D0A00000000AF
:105150004449475F50343A2025640D0A000000009E
:105160004449475F50353A2025640D0A000000008D
:105170004449475F50363A2025640D0A000000007C
:105180004449475F50373A2025640D0A000000006B
:105190004449475F50383A2025640D0A000000005A
:1051A0004449475F50393A2025640D0A0000000049
:1051B0004449475F48313A2025640D0A0000000049
:1051C0004449475F48323A2025640D0A0000000038
:1051D0004449475F48333A2025640D0A0000000027
:1051E0004449475F48343A2025640D0A0000000016
:1051F0004449475F48353A2025640D0A0000000005
:105200004449475F48363A2025640D0A00000000F3
:105210001FB5024600208DF80C004FF480340123A6
:1052200003A88DE81900EC210348FBF70FFF9DF858
:105230000C0004B010BD0000B001002010B50C46F9
:105240000A460146EC2000F09FF8208840BA2080F2
:1052500010BD10B50C460A460146EC2000F0A4F83B
:105260002068C0F3074100F47F421143C0B241EA15
:105270000040206010BD0A460146EC2000F084B8D2
:105280000A460146EC2000F07FB810B5F320FFF786
:10529000BFFF00F0090010BD10B50446F520FFF770
:1052A000B7FF04F01C0120F01C000143BDE81040D2
:1052B000F52000F053B810B50446F420FFF7A8FF1E
:1052C00004F0030120F003000143BDE81040F42086
:1052D00000F044B810B50446F220FFF799FF20F023
:1052E000070004F007010143F22000F037F8F42032
:1052F000FFF78EFF0146BDE81040F42000F02EB805
:1053000010B50446F420FFF783FF04F01C0120F0E1
:105310001C000143BDE81040F42000F01FB810B598
:105320000446F420FFF774FF04F0E00120F0E000F1
:105330000143BDE81040F42000F010B810B5044659
:10534000F520FFF765FF04F0E00120F0E0000143E5
:10535000BDE81040F52000F001B800001FB50B4675
:1053600002468DF80C304FF48034012303A88DE8F9
:105370001900EC210148FBF791FF1FBDB00100208F
:1053800070470020704700003EB54FF48033009214
:105390000224CDE901430A46014601230148FBF7F7
:1053A00055FE3EBDB00100203EB54FF48033009263
:1053B0000324CDE901430A46014601230148FBF7D6
:1053C00045FE3EBDB00100209CB0FCF73FF8FEF763
:1053D00065FDFEF73BFA30482E49002401602F4955
:1053E000C0E901144FF48041C0E903414461846184
:1053F000C4610462FBF760FD08B172B6FEE726489F
:105400002749C03001604FF41651C0E901140C2146
:10541000C460C0E904418461C461FDF7EDFA08B1DC
:1054200072B6FEE7FEF75AFAFEF792FAFFF77EFC35
:1054300000F0C2F91C221B496846FAF700FF002160
:10544000684600F091FB184C16491C22E0601C31A4
:1054500007A8FAF7F4FE002107A800F085FB114920
:1054600020611C2238310EA8FAF7E9FE00210EA8AF
:1054700000F07AFB0B4960611C22543115A8FAF741
:10548000DEFE002115A800F06FFBA06100F067FBB5
:10549000FEE7000000540040B0010020801A060022
:1054A00000380140986D00082000002001460020CF
:1054B000842900D0C81C704710B58EB00B46024638
:1054C0000BA16846FEF75AFE6846FAF7DCFE82B288
:1054D0004FF47A74234669460848FDF701FB2346DA
:1054E000032207490548FDF7FBFA0EB010BD000086
:1054F00025732E7478743D222573220070020020DB
:105500002000002008B5002000F00CF950208DF894
:10551000000073208DF801006423022269460348CD
:10552000FCF7FBFE012000F0FDF808BD180100208B
:105530000449054A0968B1FBF2F14143491EFDD215
:105540007047000054000020C0C62D000020AFF3BB
:10555000008070B5054600F02CF90446C0F38016B3
:105560006EB115B1C4F3420028704021072000F04D
:10557000B9FAA00603D52021072000F0B3FA30467F
:1055800070BD00000FB47CB514460D460646582287
:1055900009A95D48FAF753FE5C4B0120DE60DD800F
:1055A0001C8100F0BFF8002000F0B2F80520FBF7E6
:1055B0003FFA0821002000F095FA3F21012000F079
:1055C00091FA0321022000F08DFA0321084600F031
:1055D00089FA0321042000F085FA0221052000F059
:1055E00081FA0F21062000F07DFA0E21072000F03D
:1055F00079FA0021082000F075FA0021092000F056
:1056000071FAE7248DF803408DF802408DF80140CF
:105610008DF804408DF80040052269460A2000F00C
:1056200079FAC2208DF803008DF802008DF8010090
:105630008DF804008DF80000052269460B2000F06B
:1056400069FAC3210C2000F04DFAC4210D2000F0AE
:1056500049FAC5210E2000F045FAC6210F2000F0BE
:1056600041FA8DF803408DF802408DF801408DF825
:1056700004408DF8004005226946102000F04AFAE7
:105680000021112000F02EFA0021122000F02AFA49
:105690000021132000F026FA0021142000F022FA45
:1056A0000021152000F01EFA0021162000F01AFA41
:1056B000FFF728FF00211C2000F014FA00211D2014
:1056C00000F010FA00F07AFA0F21084600F0E0F935
:1056D000032000F0B7F9012000F086F9022000F065
:1056E00068F900F029F8202000F0CAF900F056F916
:1056F0004C2000F072F900F058F800F052F800F079
:10570000CFF87CBC5DF814FB1801002008000020D5
:10571000020003480189C06800D00122FBF78ABA61
:105720000800002002000348C188C06800D00122A0
:10573000FBF780BA0800002010B51D2000F0F0F83B
:1057400020F004011D2000F0CDF900211C2000F004
:10575000C9F902490020C87010BD000008000020EF
:1057600010B51D2000F0DCF840F006011D2000F00F
:10577000B9F91D2000F0D4F848B9FFF7C3FE1D2089
:1057800000F0CEF840F006011D2000F0ABF91C201F
:1057900000F0C6F840F00301BDE810401C2000F006
:1057A000A1B9FF21E22000F09DB9FF21E12000F026
:1057B00099B9072000F0B4B810B5ACB036221F4933
:1057C00015A8FAF73CFD1D4CE08EADF88A0004F1F7
:1057D0001800016A2391808CADF89000E08FADF83D
:1057E0009200112204F1400125A8FAF728FD94F84F
:1057F00051008DF8A500606D2A90542216A96846C4
:10580000FAF71DFD022204210D48159BFFF7BAFE91
:10581000012000F0C7F8342000F0DFF8202000F06D
:105820002FF90848D0E90823012000F00DF8FFF710
:1058300097FF2CB0BDE8104000F032B918020020EC
:1058400000080140200000207FB504001248134DDD
:1058500006D0062C1ED8022C07D2005D052206E0D9
:10586000DDE90212C5E90412F7E7005D012202A991
:1058700000F050F90848A978801F005D00F032F967
:10588000022000F04DF80121A1400843C1B20220DE
:1058900000F028F97FBD00008E6D00080800002090
:1058A00010B5002000F03CF820F00201BDE81040E7
:1058B000002000F017B910B500F010F8172000F024
:1058C0002FF800F00104FFF76CFF602000F028F8CB
:1058D0000CB1012010BD002010BD000038B50546F8
:1058E0000D4884788C4200D90C460020FFF71AFF3F
:1058F00061208DF800006423012269460748FCF707
:105900000CFD6423224629460448FCF759FC01207B
:10591000FFF708FF38BD0000080000201801002034
:1059200038B504460020FFF7FDFE04F01F008DF897
:1059300000006423012269460848FCF7EEFC64235A
:10594000012206480DF10101FCF73AFC9DF80140E7
:105950000120FFF7E7FE204638BD000018010020B7
:10596000F8B5044615460E460020FFF7DBFE04F0AE
:105970001F008DF800006423012269460648FCF7E9
:10598000CCFC64232A4631460348FCF719FC01206D
:10599000FFF7C8FEF8BD00001801002070210720A5
:1059A00000F0A0B808B13F2100E00021012000F084
:1059B00099B810B504460020FFF7B2FF20F00C01A3
:1059C0001CB1012C06D041F00C01BDE810400020B4
:1059D00000F088B841F00801F7E77F2800D37F2066
:1059E0000146052000F07EB82DE9F04107464FF052
:1059F00000080620FFF794FF114D002620F0280430
:105A00006E71022F0ED0012F10D06E71214606202C
:105A100000F068F80620FFF783FFA0420BD14FF09B
:105A2000010809E06E7144F02004EFE7012068717D
:105A300044F00804EAE76E714046BDE8F0810000DA
:105A40000800002010B504460620FFF769FF20F08B
:105A50000601032C0DD0022C05D0012C06D054B128
:105A6000042C06D007E041F0040104E041F00201FB
:105A700001E041F00601BDE81040062000F032B818
:105A8000202800D32020014988707047080000209A
:105A900000F00F0060F31F11042000F023B8000095
:105AA00010B50020FFF73CFF40F00301002000F09C
:105AB00019F80B49D1E90401084305D0084905222A
:105AC00010310A2000F026F8FFF76FFEFFF769FE9D
:105AD0000120FFF71DFEBDE810409620FFF728BD0E
