:020000040800F2
:1000000040060020C50000085513000867120008CC
:1000100000000000000000000000000000000000E0
:10002000000000000000000000000000B11B0008FC
:1000300000000000000000006D190008B31B00085C
:10004000D700000800000000D7000008D700000813
:10005000D7000008D7000008D7000008D700000824
:1000600000000000D7000008D7000008D7000008F3
:10007000D7000008D7000008D700000800000000E3
:10008000D70000080000000000000000D7000008B2
:1000900000000000D7000008D7000008D7000008C3
:1000A00000000000D700000800000000D700000892
:1000B0000348854600F0A6F8004800475924000888
:1000C000400600200448804704480047FEE7FEE75A
:1000D000FEE7FEE7FEE7FEE72F1C0008B100000880
:1000E00030B50B46014600202022012409E00D46D0
:1000F000D5409D4205D31D469540491B2546954058
:1001000040191546521E002DF1DC30BDF0B51FB46C
:100110000646002082B005464024019100901BE075
:10012000019922460F46304600F020F8049A059BBC
:10013000801A994110D310461946224600F052F811
:10014000361A8F410197224601200021009F00F0BE
:1001500049F838184D4100902046641E0028DFDC25
:10016000019B00982946324607B0F0BD10B5202A01
:1001700004DB0846203AD040002110BD0B46D34096
:10018000D0402024A21A91400843194610BD0346CE
:100190000B439B0703D009E008C9121F08C0042ABB
:1001A000FAD203E00B780370401C491C521EF9D2AE
:1001B0007047D2B201E00270401C491EFBD270476A
:1001C0000022F6E710B513460A4604461946FFF723
:1001D000F0FF204610BD421C0178401C0029FBD1D5
:1001E000801A704710B5202A04DB0146203A91405E
:1001F000002010BD914020239C1A0346E340194380
:10020000904010BD064C0125064E05E0E36807CC82
:100210002B430C3C98471034B442F7D3FFF74CFF04
:10022000642E0008842E000870B5044600F0CCF857
:100230000546601C02D004480078241800F0C4F879
:10024000401BA042FAD370BD60000020FCB5002323
:100250000124A1E027462A469F403A4073D04D68CA
:10026000012D05D0022D03D0112D01D0122D16D154
:1002700085680326AC465D00AE46AE406546B54394
:10028000AC46CE687546AE4065462E4386604668ED
:100290000D79BE43ED06ED0F9D4035434560C668C0
:1002A0005F000325BD40AE46AE4335468E68BE4076
:1002B0002E43C6604E68022E01D0122E14D1DE08E5
:1002C000B60036180196366A5D07B446EE0E0F2565
:1002D000B54000966646AE43B4460D69009EB540F3
:1002E00066462E43019D2E6206687546AE430D7923
:1002F000AD07AD0FBD40354305604D68ED004AD5F3
:10030000284DAE692643AE61AD699E08ED07ED0F3D
:100310000095254DB6007519AC46AD689E07360FA1
:100320000F27B740BD430927FF06B84201D1002778
:1003300010E01E4FB84201D101270BE01C4FB8421C
:1003400002D1022706E026E01A4FB84201D1032766
:1003500000E00527B7402F436546AF60164E35686D
:100360004F689543FF0300D51543356075684F68A6
:100370009543BF0300D515437560B5684F68954335
:10038000FF0200D51543B560F5684F689543BF027D
:1003900000D51543F5605B1C0A681546DA4000D0AD
:1003A00058E7FCBD00100240000001400004004876
:1003B00000080048000C004800040140002A01D059
:1003C0008161704781627047014880687047000012
:1003D00060000020024881680278891881607047B7
:1003E0006000002010B5064801681022114301602A
:1003F000002000F007F800F027F8002010BD0000F2
:100400000020024070B504460D4D7D202978C000C3
:10041000FFF766FE01460B480068FFF761FE00F03B
:100420003BFE002809D1042C07D200222146401EA1
:1004300000F01EF800206C6070BD012070BD00004F
:10044000600000206C00002008B508488169012286
:1004500011438161816911400091C26901040A431D
:10046000C261C0690840009008BD00000010024051
:1004700010B501F07FFD10BDF8B505460068354C9C
:10048000C00352D5E0690026C00007D4E16920040A
:100490000143E161E1690140012600912E480168B4
:1004A000C90510D40168821511430160FFF78CFF64
:1004B000074604E0FFF788FFC01B642824D82648BD
:1004C0000068C005F6D5206A03273F02384020D0D7
:1004D0006968394081421CD0206A226AB8430121F0
:1004E00009040A432262226A8A4322622062C00708
:1004F0000FD0FFF769FF009008E0FFF765FF009954
:10050000411A1648814201D90320F8BD206A8007AC
:10051000F3D5206A6968B84308432062002E04D0EE
:10052000E169012000078143E1612878C00705D017
:10053000206BA96880088000084320632878800623
:1005400005D5206B10218843E9680843206300200B
:10055000F8BD000000100240007000408813000049
:10056000F8B50F46060059D03A4D2868C007C00FAD
:10057000B84209D2286840084000384328602868FB
:10058000C007C00FB84249D13068334C81070CD541
:10059000400704D56068072109020843606060686D
:1005A000F0218843B168084360603078C00726D0E6
:1005B000706801280ED0216802280ED08907002912
:1005C0002CDA61688908890001436160FFF7FCFE4D
:1005D00000900DE021688903F1E78901EFE7FFF75B
:1005E000F3FE0099411A1D48814201D90320F8BD4C
:1005F00060680C210840716889008842EFD1286842
:10060000C007C00FB8420BD92868400840003843E3
:1006100028602868C007C00FB84201D00120F8BD8B
:100620003078400706D56068072109028843F168E1
:100630000843606000F028F86168094A0906090F5C
:10064000515CC840074908600020FFF7DBFE00202E
:10065000F8BD000000200240001002408813000096
:10066000702D00086C0000200448054900684968A6
:10067000044A4905490F515CC84070476C0000208E
:1006800000100240802D000810B514A30FCB88B0D5
:100690006C460FC415A30FCB0FC4184A51680C2029
:1006A0000B4603401648042B16D0082B14D18B029E
:1006B0001B0F6C46E45CD26A04AB1207120F9A5C03
:1006C000C90305D500231946FFF720FD214601E0A7
:1006D00020460C4901F036FC08B010BD02030405A9
:1006E000060708090A0B0C0D0E0F10100102030477
:1006F00005060708090A0B0C0D0E0F10001002402A
:1007000000127A0000093D00FEB5040070D0207888
:10071000DC4DC0074AD068680007800F012807D069
:1007200068680007800F022809D16868C00306D5F1
:10073000286880033AD560680028E7D036E0616811
:10074000012914D001208004002901D0052914D0EA
:100750002A68012109048A432A60296881432960A3
:100760006068002816D0FFF72FFE06460EE02868C6
:100770000121090408432860F2E729680143296040
:10078000F5E7FFF721FE801B64286ED828688003F8
:10079000F7D50BE0FFF718FE064604E0FFF714FE5E
:1007A000801B6428F1D828688003F7D420780126BC
:1007B000800700283CDA68680007800F07D0686867
:1007C0000007800F022809D16868C00306D4286892
:1007D000800716D5E06801280AD112E0E0680028F9
:1007E000286816D030432860FFF7EEFD074605E085
:1007F00043E1FFF7E9FDC01B0228C6D8286880073F
:10080000F7D52868F82188432169C9000843286082
:100810000EE0400840002860FFF7D6FD074604E0E0
:10082000FFF7D2FDC01B0228AFD828688007F7D495
:100830002078000722D5E0690028686A0ED030438E
:100840006862FFF7C1FD074604E0FFF7BDFDC01B6E
:1008500002289AD8686A8007F7D50FE04008400060
:100860006862FFF7B1FD074605E09DE0FFF7ACFDCC
:10087000C01B022889D8686A8007F7D4207804272B
:100880004007002860DA00200190E869C00008D421
:10089000E969B8060143E961E96901400120009175
:1008A000019079480168C90511D401688215114386
:1008B0000160FFF789FD009005E0FFF785FD0099D5
:1008C000401A642870D870480068C005F5D5A06843
:1008D00001280AD0002801D0052810D0286A400835
:1008E00040002862286AB84301E0286A3043286241
:1008F000A068002812D0FFF767FD00900AE0286A80
:1009000038432862F1E7FFF75FFD0099411A5F481D
:10091000814249D8286A8007F5D50DE0FFF754FDDC
:10092000009006E0FFF750FD0099411A57488142B8
:100930003AD8286A8007F5D40198002804D0E969DC
:10094000012000078143E9612078C00635D5606940
:1009500001280CD0401D686B23D038436863686B56
:10096000400840006863FFF72FFD064622E0686BF1
:1009700038436863686B30436863FFF725FD0646BC
:1009800004E0FFF721FD801B02285BD8686B80071D
:10099000F7D5686BF8218843A169C90008436863EB
:1009A0000BE0B8436863F4E74CE0FFF70DFD801BF4
:1009B000022847D8686B8007F7D4206A00285ED0E9
:1009C00069680907890F022942D0012636060228E4
:1009D000286805D0B0432860FFF7F6FC044633E0F2
:1009E000B0432860FFF7F0FC074604E0FFF7ECFC9B
:1009F000C01B022826D828688001F7D4E86AE16A7B
:100A0000000900010843E862616AA06A0843696856
:100A10003D221204914308436860286830432860EF
:100A2000FFF7D2FC044604E0FFF7CEFC001B0228CF
:100A300008D828688001F7D521E0FFF7C5FC001B26
:100A4000022801D90320FEBD28688001F5D416E0F4
:100A50000128F8D06868E96A01221204636A02403A
:100A60009A420AD10907E26A090F914205D10F2182
:100A700089040840A16A884201D00120FEBD0020FF
:100A8000FEBD00000010024000700040881300000E
:100A9000F8B504000CD0606A002500280AD0256152
:100AA000656126464036A562707F002808D00BE0BD
:100AB0000120F8BD6168C81FFD38F2D0E561F0E79C
:100AC0003577204600F05CF80222727720680168D2
:100AD0004023994301600723E1681B02994201D931
:100AE000002001E0012000030F273F02B94202D09D
:100AF000994200D0A562FF23616805331940212780
:100B0000A368BF023B40194323691340227D194368
:100B1000D207D20F11430123A2695B021A4011438D
:100B2000E26938231A401143226A80231A40114394
:100B3000A26A9B011A40114322681160A169042234
:100B4000090C1140626A10231A401143626B08239A
:100B50001A4011430F23E2681B021A40114301227D
:100B6000120310400143206841602068C16952109F
:100B70009143C1612566012070770020F8BD000017
:100B800010B586B0044614216846FFF719FB1149D9
:100B9000206888421CD11048826981140A4382610E
:100BA00082690A400592426949010A4342614069EB
:100BB00008400590E02000900220019000210320D1
:100BC00003900291049109206946C006FFF73EFB9D
:100BD00006B010BD0030014000100240FFB50446D1
:100BE0004068FF21254600260531403581B0174673
:100BF000884202D1A06800280CD0287F012815D097
:100C000001202877FFF7E0FB0090687F01280FD0D4
:100C100002268FE00420687713460498029A009019
:100C20001146204600F03EF905B0F0BD0220FBE77A
:100C3000029800287DD0002F7BD004206877002008
:100C4000206602992164AF80EF80A063A087E087CF
:100C5000E064206507210120E268090200038A425E
:100C60002268536801D9834300E0034353600123A2
:100C7000A068DB034022984208D1206803689343B0
:100C80000360206803681702BB43036020680368A1
:100C90005B0602D4036813430360E06888421AD9F4
:100CA00038E020688168C90709D0007B216C087092
:100CB000206C401C2064E888401EE8800BE0FFF7B1
:100CC00083FB0099411A0498814202D3401C02D050
:100CD00036E0002834D0E8880028E2D11DE0206802
:100CE0008168C90709D0C068216C0880206C801C0D
:100CF0002064E888401EE8800CE0FFF765FB0146B1
:100D00000098091A0498814202D3401C02D017E0CF
:100D1000002815D0E8880028E1D12046009A0499DF
:100D200000F025FE002801D020202066206E00283B
:100D300000D001260120687700202877304673E72D
:100D40000326F7E7FFB5054604464035287F002710
:100D500081B01646012809D001202877FFF734FB1F
:100D60000090687F012804D0022795E0022005B09A
:100D7000F0BD0298002872D0002E70D00320687752
:100D8000002020660299A163A687E6872064A880D8
:100D9000E8802065E0640122A068D20340219042EF
:100DA00008D1206802688A430260206802680B024A
:100DB0001A43026020680268520602D402680A439D
:100DC00002600721E06809028842606826D900288D
:100DD00001D0012E1ED1A06B21680088C86006E0FA
:100DE00020688168890709D5A16B0988C160A06B5B
:100DF000801CA063E08F401EE0870BE0FFF7E4FA61
:100E00000099411A0498814202D3401C02D039E073
:100E1000002837D0E08F0028E2D126E0002801D05A
:100E2000012E1FD1A06B21680078087306E02068AE
:100E30008168890709D5A16B09780173A06B401CF3
:100E4000A063E08F401EE0870CE0FFF7BDFA009939
:100E5000411A0498814203D3401C03D012E01AE0E7
:100E600000280FD0E08F0028E1D12046009A049995
:100E700000F0B9FD002801D020202066A0680028DD
:100E800002D005E0032707E02068C1688068009071
:100E9000206E002800D001270120687700202877E5
:100EA000384664E7FFB5044683B001200190002076
:100EB000254640350090287F0C9F1E4601280FD004
:100EC00001202877FFF780FA0290687F6168012887
:100ED0000DD0CA1FFD3A08D1A168002905D102E052
:100EE000022007B0F0BD042801D00220D1E0049810
:100EF000002820D0059800281DD0002E1BD0687F28
:100F0000042801D005206877002020660599216417
:100F1000EE80AE800499A163E687A687E064206531
:100F200007210120E268090200038A42226853680F
:100F300003D9834302E00120ABE003435360206800
:100F40000268520603D4026840231A430260E06834
:100F50008842606844D9002801D0012E39D1A06BA5
:100F600021680088C860A06B801CA063E08F401ED1
:100F7000E0872EE020688168890710D5E18F00297D
:100F80000DD0019901290AD1A16B0988C160A06B1C
:100F9000801CA063E08F401EE08700200190206845
:100FA0008168C9070DD0E98800290AD0C068216C82
:100FB0000880206C801C2064E888401EE8800120A6
:100FC0000190FFF701FA0299401AB84201D3781C48
:100FD0005ED1E08F0028CDD1E8880028CAD146E054
:100FE000002801D0012E3CD1A06B21680078087345
:100FF000A06B401CA063E08F401EE08731E02068BA
:101000008168890710D5E18F00290DD00199012948
:101010000AD1A16B09780173A06B401CA063E08F1B
:10102000401EE0870020019020688168C9070DD02C
:10103000E98800290AD0007B216C0870206C401CD4
:101040002064E888401EE88001200190FFF7BCF989
:101050000299401AB84202D3781C02D018E0002F3F
:1010600016D0E08F0028CAD1E8880028C7D13946B9
:101070002046029A00F0B7FC002803D0012000901F
:10108000202020660120687700202877009828E734
:1010900003200090F6E70000094910B5401E884281
:1010A00001D9012010BD074C60610321081F00F029
:1010B00061FF0020A06107202061002010BD00001A
:1010C000FFFFFF0000E000E010B5040003D0A06FB8
:1010D000002802D007E0012010BD00217420015536
:1010E000204600F027F82420A067206801684908FE
:1010F00049000160204600F033FE0128ECD0606A10
:10110000002802D0204600F093FD206841680122AB
:10111000D202914341602068816808229143816036
:1011200020680168012211430160204600F0E6FDBD
:1011300010BD000010B586B0044614216846FFF7C4
:101140003FF81249206888421ED111488269012166
:1011500089030A43826182690A4005924269C90093
:101160000A4342614069084005900C20009002202B
:101170000190002002900320039001200490092098
:101180006946C006FFF762F806B010BD003801409E
:1011900000100240FFB50446806F83B017460D462D
:1011A00020285ED1002D0AD0002F08D0A168C001F0
:1011B000814207D12069002804D1E80702D001202C
:1011C00007B0F0BD204660300090007D012848D077
:1011D0000098012101750020802108512120A0677D
:1011E000FFF7F2F8264640360190378277820120D9
:1011F000A1680003814202D12069002805D02F4652
:10120000002500990020087511E00027F9E7002269
:101210008021204600F032FE002815D1002F15D085
:101220002168387808857F1C708A401E7082708A19
:10123000019B002806980090E9D100224021204619
:1012400000F01CFE002808D00320B9E72888216898
:10125000C005C00D0885AD1CE6E72020A067002072
:10126000AEE70220ACE7FEE730B587B01421684650
:10127000FEF7A6FF15484269012189050A4342612C
:1012800042690A400592426949110A434261406934
:1012900009250840ED060590002203212846FFF7A6
:1012A0008DF80320009001200024019002946946EB
:1012B00003942846FEF7CAFF102000900194694667
:1012C00002942846FEF7C2FF07B030BD001002406E
:1012D00010B511480F490160FF210531416000211F
:1012E0000722816012020161C26001224161520243
:1012F0008261016210224162C26181620722C26280
:10130000016308214163FFF7C3FB002801D072B6D7
:10131000FEE710BD003001407000002010B50C4801
:101320000A4901604B214902416000218160C1608E
:1013300001618161C1610C22016242614162FFF77A
:10134000C3FE002801D072B6FEE710BD0038014090
:10135000D4000020FEE7000008B5002000F004F9EA
:10136000502168460170732141706423022269464E
:101370000348FFF7E7FC012000F0F6F808BD000085
:101380005801002010B50446054804490068FEF7DE
:10139000A7FE6043401EFDD210BD0000C0C62D0058
:1013A0006C00002070B5054600F031F90446400697
:1013B000C60F0ED0002D02D02007400F287040210C
:1013C000072000F09DFAA00603D52021072000F099
:1013D00097FA304670BD00000FB47CB514460D4638
:1013E0000646642209A95848FEF7D1FE574B012052
:1013F000DE60DD801C8100F0B7F8002000F0A8F866
:101400000520FEF711FF0821002000F079FA3F21A6
:10141000012000F075FA0321022000F071FA032187
:10142000084600F06DFA0321042000F069FA022159
:10143000052000F065FA0F21062000F061FA0E2168
:10144000072000F05DFA0021082000F059FA002181
:10145000092000F055FAE72468460471C4708470CE
:1014600044700470052269460A2000F061FAC22126
:1014700068460171C1708170417001700522694632
:101480000B2000F055FAC3210C2000F039FAC421DA
:101490000D2000F035FAC5210E2000F031FAC621EA
:1014A0000F2000F02DFA68460471C47084704470F7
:1014B000047005226946102000F03AFA002111203C
:1014C00000F01EFA0021122000F01AFA0021132069
:1014D00000F016FA0021142000F012FA0021152065
:1014E00000F00EFA0021162000F00AFAFFF734FF90
:1014F00000211C2000F004FA00211D2000F000FA59
:1015000001F050F80F21084600F05EF9032000F0CA
:1015100037F9012000F008F9022000F0E9F800F0A6
:101520002FF8202000F048F900F0D2F84C2000F00D
:10153000F2F800F061F800F059F800F083F87CBC94
:1015400008BC04B0184700005801002048000020E3
:10155000020010B503480189C06800D00122FEF7DF
:101560002DFF10BD48000020020010B50348C188BF
:10157000C06800D00122FEF721FF10BD4800002006
:1015800010B51D2000F068F8FB2101401D2000F07F
:10159000B7F900211C2000F0B3F902490020C870FF
:1015A00010BD00004800002010B51D2000F054F8C8
:1015B0000624204301461D2000F0A2F91D2000F062
:1015C0004BF8002809D1FFF7C7FE1D2000F044F8B2
:1015D000204301461D2000F093F91C2000F03CF848
:1015E000032101431C2000F08BF910BD10B5FF2131
:1015F000E22000F085F910BD10B5FF21E12000F0D8
:101600007FF910BD10B5602000F026F810BD10B5B0
:10161000072000F021F810BD13B5052269460A2005
:1016200000F086F905226946102000F081F904488F
:101630008178202900D32021112000F061F91CBD00
:101640004800002010B5002000F006F8FD21014000
:10165000002000F055F910BD38B504460020FFF712
:1016600083FFE106C90E68460170642301226946C2
:101670000848FFF767FB00A96423012205480131F0
:10168000FFF7ACFA684644780120FFF76DFF20466B
:1016900038BD000058010020F8B5044615460E4636
:1016A0000020FFF761FFE006C00E69460870642362
:1016B00001220648FFF746FB64232A4631460348C9
:1016C000FFF78CFA0120FFF74FFFF8BD580100200B
:1016D00010B57021072000F013F910BD10B50028D7
:1016E00001D03F2100E00021012000F009F910BDE8
:1016F00010B504460020FFF7AFFFF3210140002C96
:1017000005D00820012C01D0014304200143002012
:1017100000F0F6F810BD10B57F2800D37F200146F9
:10172000052000F0EDF810BDF8B507460020009048
:101730000620FFF791FFD7210026104D08406E715B
:101740000446022F0ED0012F0FD06E7121460620C5
:1017500000F0D6F80620FFF77FFFA0420AD1012053
:101760000090F8BD6E71202002E001206871082011
:101770000443EBE76E710098F8BD000048000020BC
:1017800010B504460620FFF767FFF9210140062047
:10179000032C0BD0022C06D0012C06D0002C06D036
:1017A000042C03D003E0042000E0022001430620C3
:1017B00000F0A6F810BD0000202800D32020014929
:1017C00088707047480000200A460007010E100785
:1017D000000F10B50143042000F092F810BD70B561
:1017E00005460C460020FFF7B3FE0020FFF734FF4C
:1017F0000221084341084900002000F081F801203F
:10180000FFF7A6FE9620FFF7BDFD2146284600F013
:101810005DF80120FFF79CFE0F20FFF7B3FD0020CD
:10182000FFF796FE70BD10B50020FFF791FEFFF7A1
:10183000E3FEFFF7DBFE10BDF8B515460E46044685
:10184000FFF7E5FE0746002020707021072000F01A
:1018500057F8B806C00F2070F806C00F3070780631
:10186000C00F2870F8BD00003EB50C460546FFF7D6
:101870002FFF21462846FFF7B2FFFEF7A5FD0446DD
:10188000012201A90820FFF707FFFFF7C0FE80062D
:10189000800F04D1FEF798FD001B0A28F0D30A4AF6
:1018A00002A96846FFF7C8FF6846074C057820780C
:1018B000002802D0FFF7A6FE60700020FFF772FD3F
:1018C000FFF79AFE28463EBD4800002038B5054681
:1018D0000C460020FFF748FEA020694608706423EC
:1018E00001220648FFF72EFA6423224629460348C0
:1018F000FFF728FA0120FFF737FE38BD5801002016
:1019000038B505460C460020FFF72EFE2020054383
:101910006846057044706423022269460348FFF755
:1019200011FA0120FFF720FE38BD00005801002009
:10193000F8B5044615460E460020FFF715FE202098
:101940000443684604706423012269460648FFF791
:10195000F9F964232A4631460348FFF7F3F90120D9
:10196000FFF702FEF8BD0000580100207047F7B5F0
:1019700004464068FF26053682B01546B0420CD1B9
:101980000121A068C903884202D04911884204D1CC
:101990002068016840229143016000950022802167
:1019A0002046039B00F0A8F82027002813D1606888
:1019B000B04216D1A068B902884202D049118842CB
:1019C0000FD103210095002249022046039B00F01D
:1019D00031F8002805D0206E38432066032005B07A
:1019E000F0BD0020FBE7F8B50F460B461546009208
:1019F000032104460022C90200F01CF8202600281A
:101A000012D13B46002280212046009500F074F858
:101A1000002809D103213B460022490220460095B7
:101A200000F008F8002803D0206E30432066032021
:101A3000F8BD0000FFB583B017460E4604460C9D66
:101A4000FEF7C2FC411B0698451AFEF7BDFC01904B
:101A50002848232100684843000D684342E00321E1
:101A600049028E4202D1002F00D1007B0698401C13
:101A700039D0FEF7A9FC0199401AA84205D2002DE1
:101A800003D0009800282BD02BE020684168E0228A
:101A9000914341606068C11FFD390CD10121A068EC
:101AA000C903884202D04911884204D120680168E4
:101AB0004022914301600120A16A4003814207D185
:101AC00021680A6882430A6021680A6802430A6042
:101AD00001204034607700202077032007B0F0BD5C
:101AE0000025401E0090206881683140B942B6D17F
:101AF0000020F3E76C000020FFB581B01E460446CD
:101B00000A9DFEF761FC401B351AFEF75DFC074697
:101B1000264800684001000D684339E0701C38D049
:101B2000FEF752FCC01BA84205D2002D03D000983E
:101B300000282BD02BE020684168E02291434160CF
:101B40006068C11FFD390CD10121A068C90388421A
:101B500002D04911884204D1206801684022914393
:101B600001600120A16A4003814207D121680A680F
:101B700082430A6021680A6802430A6001204034F7
:101B8000607700202077032005B0F0BD0025401EBF
:101B90000090206881680298884305D0002103984E
:101BA0008142BBD10020EFE70121F8E76C00002063
:101BB000704710B5FEF70EFC10BD70B594B0302123
:101BC0006846FEF7FDFA00240E94022613941020B6
:101BD00009940D940F940490129401250096C0036B
:101BE0000C94109408960A90119403950B956846EE
:101BF000FEF78AFD002801D072B6FEE707200C90A0
:101C000080200E900D9600210F940CA8FEF7A8FCE2
:101C1000002801D072B6FEE710A810951294FEF7C6
:101C20002BFC002801D072B6FEE714B070BD7047DF
:101C300010B5818CC90707D001684A6801235B048D
:101C40009A43836A1A434A60818C890707D50168E1
:101C50004A6801231B049A43C36A1A434A60818C71
:101C6000490707D501684A6801239B049A43036B1F
:101C70001A434A60818C090707D501684A68012325
:101C8000DB039A43436B1A434A60818CC90607D52C
:101C90000268916801231B039943836B1943916088
:101CA000818C890607D501688A6801235B039A4302
:101CB000C36B1A438A60818C490612D503685A683F
:101CC00001210905046C8A4322435A60026C8A424E
:101CD00007D10268516803235B059943436C19439C
:101CE0005160818C090607D501684A680123DB042D
:101CF000806C9A4302434A6010BD0000F8B5044668
:101D0000002680300660FEF75FFB0546206800680D
:101D1000124F000709D501212B4600224905204614
:101D2000009700F0ABF800280DD12068006840074C
:101D30000BD501212B46002289052046009700F093
:101D40009DF8002801D00320F8BD2020A067E0679F
:101D50002666603426750020F8BD0000FFFFFF01F5
:101D600070B5044680682169E2690843616900250D
:101D70001143084321680A683C4B1A4002430A6039
:101D800021684868032212039043E26810434860C8
:101D9000A169206A084321688A680B231B029A43C1
:101DA00002438A603248006B8007800F16D00128FA
:101DB00018D0022818D0032812D010210120E3697E
:101DC000C0032C4A2C4E83422BD100290ED002296D
:101DD0000FD004290FD008293FD110E00021EDE7F2
:101DE0000221EBE70421E9E70821E7E7FEF73CFCE5
:101DF00003E0104603E0FEF747FC002831D061689D
:101E000040004A088018FEF76BF980B2014610398D
:101E1000B14222D81849491C01400007400F08432D
:101E20001DE0002906D0022907D0042907D008297F
:101E300013D108E0FEF718FC03E0104603E0FEF7BC
:101E400023FC00280DD061684A081018FEF748F9F5
:101E500080B201461039B14201D9012501E0216863
:101E6000C86000206066A066284670BDF369FFFF69
:101E70000010024000127A00EFFF0000FFB581B0B1
:101E800005460F46044660350A9E39E0701C37D07F
:101E9000FEF79AFA0499401AB04222D8002E20D0B8
:101EA0002068016849072BD5C069C043000527D4C5
:101EB00001202168C002086220680168FF22A13267
:101EC00091430160206881684908490081602020B1
:101ED000A067E0678034206000202875032005B0EB
:101EE000F0BD20680168FF22A132914301602068A3
:101EF00081684908490081602020A067E067EBE71E
:101F00002068C1693846884305D000210398814282
:101F1000BCD00020E3E70121F8E700000FB410B5C2
:101F200004A9074B02AA039800F056F8044602A938
:101F3000002000F08BFA204610BC08BC04B0184703
:101F40004D240008F8B5040C8BB2264682B25E43DD
:101F50000D0C1046370C5843360480190021794186
:101F600016466E43370C36048019794126466E4377
:101F70008919F8BD8307FF22DB0E9A408907090EF5
:101F80009940002808DB830809489B001B18186843
:101F900090430843186070470007000F0838830813
:101FA00004489B001B18D86990430843D8617047C8
:101FB00000E400E000ED00E002E008C8121F08C1E4
:101FC000002AFAD170477047002001E001C1121FBA
:101FD000002AFBD170470000FFB591B00F460546BF
:101FE000002606E025280AD0149A139990476D1C04
:101FF000761C28780028F5D1304615B0F0BD0024B5
:1020000000940121F34A029400E004436D1C2B78F4
:102010000846203B98401042F7D128782A280ED055
:10202000022128780246303A092A15D8009A0A2354
:102030005A43303A80180C436D1C0090F1E701CFF1
:102040000090002805DA0120400304430098404234
:102050000090022004436D1C28782E2815D10420FE
:10206000044368786D1C2A280AD101CF6D1C0290A8
:102070000BE002990A225143303940186D1C02903E
:102080002878014630390929F3D928786C2810D0EE
:1020900006DC4C281AD068280ED06A2817D104E034
:1020A000742813D07A2812D110E00120400504438F
:1020B0000CE00121090501E0032109050C436978C1
:1020C000814203D10120000524186D1C6D1C287865
:1020D00003906E281ED00CDC632831D004DC00286D
:1020E0008AD0582811D1B2E064287BD069280CD15D
:1020F00078E073282DD004DC6F2870D0702804D1CC
:10210000A7E075286CD078286BD0149A1399904763
:10211000761C62E06002400F022807D003280AD034
:10212000042838680AD006603F1D56E03868F11769
:1021300006604160F8E738680680F5E70670F3E767
:102140003878694608740020487404A80390012078
:1021500003E0386803900020C0433F1D61070FD59E
:10216000002101E00199491C029A0191914213DA80
:102170008142F7DB019A0399895C0029F2D10BE0D7
:10218000002101E00199491C01918142FADB019A89
:102190000399895C0029F5D101990098139A401A96
:1021A00000902146149B00F03BF9019980194618D4
:1021B00007E0039803990078491C0391149A139936
:1021C00090470198401E0190401CF2D12146149B7B
:1021D000139A009800F014F986196D1C09E741E084
:1021E00033E034E00A200021049005916002410FA1
:1021F000022905D001CFC2179446032905D007E074
:10220000FF1DFF08FF0003CF06E000B2C21794468F
:10221000042902D140B2C1178C4600226146944580
:1022200006DA0A460021404291418C462D2102E007
:10223000210504D52B216A461176012103E0E1072F
:1022400001D02021F7E7019154E00A200BE0102093
:1022500009E0102004900021042004430820059187
:10226000029003E008200021059104906002410FD4
:10227000022905D001CF00229446032906D006E0AA
:10228000FF1DFF08FF0003CF8C4603E080B2042946
:1022900000D1C0B20021019121072BD503997029EB
:1022A00006D0049A1021059B4A401A4305D00EE03F
:1022B00040216A461176012108E06146014306D0BB
:1022C00030216A4611760399517602210191049AD0
:1022D0000821059B4A401A430CD16146014301D1B4
:1022E000610707D530216A461176012101910299D3
:1022F000491E02910399582904D037A103910FA9CF
:102300000F910DE039A1F9E76146059B049AFDF7AD
:10231000FDFE039B8C469B5C0F9A521E0F9213701E
:1023200061460143F0D10F9807A9081A20300390A5
:10233000600704D5012000048443029801E00120D5
:1023400002900399884201DD401A00E00020411804
:102350000290019809180098401A0090E00306D4F2
:102360002146149B139A009800F05AF88619002011
:10237000049008E006A9085C149A13999047049801
:10238000401C761C049001998842F3DBE0030CD5D5
:102390002146149B139A009800F042F8861904E035
:1023A000149A302013999047761C0299481E029087
:1023B0000029F5DC08E00F980F990078491C0F916F
:1023C000149A13999047761C0399481E039000298C
:1023D000F1DCFBE609280100303132333435363781
:1023E0003839616263646566000000003031323361
:1023F0003435363738394142434445460000000001
:10240000F8B5044600251E461746880404D405E0A6
:1024100039462020B0476D1C641EF9D52846F8BD0A
:10242000FFB50446002581B01E46C80301D53027FC
:1024300000E02027880404D505E038460399B0471A
:102440006D1C641EF9D5284605B0F0BD0A68531C02
:102450000B60107070470000BEB0FDF7C3FFFFF7C0
:10246000ACFBFEF701FFFEF733FFFEF757FF3E22FE
:10247000424918A8FDF78BFE404DE98F20A8C18383
:102480002946403106220C4628A8FDF780FEE18847
:1024900020A8C1842946152248312AA8FDF777FED5
:1024A000617F28A84177286E3090602219A968467C
:1024B000FDF76DFE092002220121C006189BFEF7E0
:1024C0008BFF2946522264311DA8FDF760FE2C4681
:1024D000A434618A30A8C18021460622143132A872
:1024E000FDF755FE618B30A8C18120462438006C71
:1024F000403C3490206E359021461422643136A839
:10250000FDF745FEA06F3B90E06F3C902046803089
:1025100000683D90742221A96846FDF738FE1DA889
:102520000FC800F031F8FFF77EF9154903C9FFF72E
:1025300073F80120FFF7D2F83420FFF7ECF82020E1
:10254000FFF73AF9FFF730F800F02CF80D4C0C4883
:1025500020210830FFF788F900280BD008482830E0
:10256000FDF739FE82B2064904480A232831643057
:10257000FEF710FE2046FDF757FEE8E7700000204A
:1025800000000020DC0500000FB410B5842202A971
:102590000348FDF7FCFD10BC08BC04B01847000060
:1025A000BC01002010B5A0B0F4A106A8FFF7B6FC4E
:1025B00006A8FDF710FE82B20A2306A9FC48FEF722
:1025C000E9FD0020FFF748F801077FD5400701D556
:1025D000F8A100E0FEA106A8FFF7A0FC06A8FDF701
:1025E000FAFD82B20A2306A9F148FEF7D3FD0120C5
:1025F000FFF732F88106C90FC2060307D20F039115
:10260000DB0F4407029281070193C207E40FCB0F4F
:102610000094D20FF54906A8FFF780FC06A8FDF745
:10262000DAFD82B20A2306A9E148FEF7B3FD0220D3
:10263000FFF712F88106C90FC2060307D20F0391F4
:10264000DB0F4407029281070193C207E40FCB0F0F
:102650000094D20FE64906A8FFF760FC06A8FDF734
:10266000BAFD82B20A2306A9D148FEF793FD0320E2
:10267000FEF7F2FF8207920FDEA106A8921CFFF779
:102680004DFC06A8FDF7A7FD82B20A2306A9C8489B
:10269000FEF780FD0520FEF7DFFF4206520EDCA1AB
:1026A00006A8FFF73BFC06A8FDF795FD82B20A23BA
:1026B00006A9BF48FEF76EFD0620FEF7CDFF0446D3
:1026C000000705D500E001E0D6A102E0DBA182E72A
:1026D000DFA106A8FFF722FC06A8FDF77CFD82B269
:1026E0000A2306A9B248FEF755FD60088007800F4F
:1026F00006D0012806D0022806D0032806D009E01B
:10270000D9A104E0DDA102E0E1A100E0E5A106A875
:10271000FFF704FC06A8FDF75EFD82B20A2306A9B6
:10272000A348FEF737FD052204A90A20FEF7B4FFEF
:102730006846027C417C807C6B4607C36846C37C4C
:10274000027DDDA106A8FFF7E9FB06A8FDF743FD22
:1027500082B20A2306A99648FEF71CFD052204A9A9
:102760000B20FEF799FF6846027C417C807C6B461B
:1027700007C36846C37C027DDBA106A8FFF7CEFB3A
:1027800006A8FDF728FD82B20A2306A98848FEF7AD
:1027900001FD012204A90C20FEF77EFF6846027CA1
:1027A000DDA106A8FFF7BAFB06A8FDF714FD82B26B
:1027B0000A2306A97E48FEF7EDFC012204A90D209C
:1027C000FEF76AFF6846027CDDA106A8FFF7A6FBBC
:1027D00006A8FDF700FD82B20A2306A97448FEF799
:1027E000D9FC012204A90E20FEF756FF6846027CA0
:1027F000DDA106A8FFF792FB06A8FDF7ECFC82B26C
:102800000A2306A96A48FEF7C5FC012204A90F2085
:10281000FEF742FF6846027CDDA106A8FFF77EFBBB
:1028200006A8FDF7D8FC82B20A2306A96048FEF785
:10283000B1FC052204A91020FEF72EFF6846027C99
:10284000417C807C6B4607C36846C37C027DDAA16D
:1028500006A8FFF763FB06A8FDF7BDFC82B20A23BA
:1028600006A95348FEF796FC1120FEF7F5FE8206F6
:10287000920EDCA106A8FFF751FB06A8FDF7ABFC02
:1028800082B20A2306A94A48FEF784FC1220FEF70A
:10289000E3FE8206920EDAA106A8FFF73FFB06A828
:1028A000FDF799FC82B20A2306A94148FEF772FCA3
:1028B0001320FEF7D1FE8206920ED8A106A8FFF7DC
:1028C0002DFB06A8FDF787FC82B20A2306A938482B
:1028D000FEF760FC1420FEF7BFFE8206920ED6A122
:1028E00006A8FFF71BFB06A8FDF775FC82B20A23BA
:1028F00006A92F48FEF74EFC1520FEF7ADFE820616
:10290000920ED4A106A8FFF709FB06A8FDF763FC09
:1029100082B20A2306A92648FEF73CFC1620FEF7E1
:102920009BFE8206920ED2A106A8FFF7F7FA06A830
:10293000FDF751FC82B20A2306A91D48FEF72AFCC6
:102940001C20FEF789FE8106C90FC2060307D20FBD
:102950000391DB0F4407029281070193C207E40F42
:10296000CB0F0094D20FC94906A8FFF7D7FA06A8E3
:10297000FDF731FC82B20A2306A989E10D0A2A2A51
:102980002A2A2A2A2A2A2A2A2A2A2A2A2A2A2A2AA7
:102990002A2A2A2A2A2A2A2A2A2A2A2A2A2A2A2A97
:1029A0002A2A2A2A2A2A2A2A2A2A2A2A0D0A000018
:1029B000BC0100204352433A0D0A0909456E616289
:1029C0006C65642C2032204279746573200D0A00F6
:1029D0004352433A0D0A0909456E61626C65642CE5
:1029E00020312042797465200D0A0000882D0008EE
:1029F000CC2D000853455455505F41573A0D0A09F4
:102A0000092564206279746573200D0A00000000B6
:102A100052465F43483A0D0A09092564204348207D
:102A20000D0A00004461746120526174653A0D0A18
:102A30000909324D627073200D0A00004352433A77
:102A40000D0A090944697361626C6564200D0A000E
:102A50004461746120526174653A0D0A0909314D6F
:102A6000627073200D0A000052465F5057523A0DB3
:102A70000A09092D31386442200D0A0052465F5080
:102A800057523A0D0A09092D31326442200D0A00CD
:102A900052465F5057523A0D0A09092D36644220BA
:102AA0000D0A000052465F5057523A0D0A0909308C
:102AB0006442200D0A00000052585F506970653072
:102AC0002041646472733A0D0A0909253032582C8A
:102AD000253032582C253032582C253032582C25B0
:102AE00030325820200D0A0052585F50697065310D
:102AF0002041646472733A0D0A0909253032582C5A
:102B0000253032582C253032582C253032582C257F
:102B100030325820200D0A0052585F5069706532DB
:102B20002041646472733A0D0A090978782C787828
:102B30002C78782C78782C2530325820200D0A00FB
:102B400052585F50697065332041646472733A0D66
:102B50000A090978782C78782C78782C78782C25C4
:102B600030325820200D0A0052585F506970653489
:102B70002041646472733A0D0A090978782C7878D8
:102B80002C78782C78782C2530325820200D0A00AB
:102B900052585F50697065352041646472733A0D14
:102BA0000A090978782C78782C78782C78782C2574
:102BB00030325820200D0A0054582041646472734A
:102BC0003A0D0A0909253032582C253032582C2567
:102BD0003032582C253032582C2530325820200DD8
:102BE0000A00000052585F50575F50303A0D0A09F2
:102BF000092564206279746573200D0A00000000C5
:102C000052585F50575F50313A0D0A090925642028
:102C10006279746573200D0A0000000052585F50FD
:102C2000575F50323A0D0A090925642062797465AC
:102C300073200D0A0000000052585F50575F503358
:102C40003A0D0A09092564206279746573200D0A1A
:102C50000000000052585F50575F50343A0D0A0987
:102C6000092564206279746573200D0A0000000054
:102C700052585F50575F50353A0D0A0909256420B4
:102C80006279746573200D0A00000000182E000898
:102C90001B48FEF77FFA1D20FEF7DEFC04464007C6
:102CA00001D518A100E01DA106A8FFF737F906A875
:102CB000FDF791FA82B20A2306A91148FEF76AFAD3
:102CC000A00701D51BA100E021A106A8FFF726F966
:102CD00006A8FDF780FA82B20A2306A90848FEF783
:102CE00059FA224906A8FFF719F906A8FDF773FA61
:102CF00082B20A2306A90248FEF74CFA20B010BDA2
:102D0000BC010020454E5F44504C3A0D0A0909456C
:102D10006E61626C6564200D0A000000454E5F44E0
:102D2000504C3A0D0A090944697361626C6564206C
:102D30000D0A0000454E5F41434B5F5041593A0D2B
:102D40000A0909456E61626C6564200D0A00000085
:102D5000454E5F41434B5F5041593A0D0A090944C2
:102D6000697361626C6564200D0A00007C290008AB
:102D7000000000000000000001020304060708092B
:102D80000000000001020304454E41413A0D0A09CA
:102D90000950303A0925640D0A090950313A0925CC
:102DA000640D0A090950323A0925640D0A090950CF
:102DB000333A0925640D0A090950343A0925640D8E
:102DC0000A090950353A0925640D0A00454E5F523B
:102DD00058414444523A0D0A090950303A092564D1
:102DE0000D0A090950313A0925640D0A09095032C2
:102DF0003A0925640D0A090950333A0925640D0A78
:102E0000090950343A0925640D0A090950353A096F
:102E100025640D0A0000000044594E50445F70695B
:102E200070653A0D0A090950303A0925640D0A09FE
:102E30000950313A0925640D0A090950323A092529
:102E4000640D0A090950333A0925640D0A0909502D
:102E5000343A0925640D0A090950353A0925640DEB
:102E60000A000000842E000800000020700000000E
:102E7000B81F0008F42E000870000020D0050000E4
:102E8000C81F0008B3B4B5B6B700000048656C6C45
:102E90006F000000000000000000000000000000C3
:102EA0000000000000000000000000005375636394
:102EB000657373210D0A000000000000000000008F
:102EC0000000000000000000000000000000000002
:102ED00000000000000000000000000000000000F2
:102EE00000000000010000000400000000000000DD
:042EF00000127A0052
:04000005080000B13E
:00000001FF
